:020000040800F2
:10000000B0460020DD010008B73700087D32000847
:10001000B537000861090008D1470008000000005A
:100020000000000000000000000000004501000882
:10003000A7090008000000008901000875390008C0
:10004000F7010008F7010008F7010008F7010008B0
:10005000F7010008F7010008F7010008F7010008A0
:10006000F7010008F7010008A90900086509000860
:10007000F7010008F7010008F701000871090008FE
:10008000F7010008F701000825080008F70100083B
:10009000F7010008F7010008F7010008F701000860
:1000A000F701000869410008F7010008F70100089E
:1000B000F701000875410008F7010008F701000882
:1000C000F7010008F7010008F7010008F701000830
:1000D000F7010008BD470008F7010008F701000814
:1000E000F7010008F7010008F7010008F701000810
:1000F000F7010008F7010008F7010008F701000800
:10010000F7010008F7010008F7010008F7010008EF
:10011000F7010008F7010008F70100088141000815
:10012000F7010008F7010008F7010008F7010008CF
:10013000DFF80CD000F02AFB004800475D550008AE
:10014000B0460020224B19680868B0E8F00F80F331
:100150000988BFF36F8F4FF0000080F311884EF0D5
:100160000D0E70470000000006480068006880F32C
:10017000088862B661B6BFF34F8FBFF36F8F00DFA1
:1001800000BF00BF08ED00E0EFF30980BFF36F8F01
:100190000F4B1A6820E9F00F106008B54FF05000BF
:1001A00080F31188BFF34F8FBFF36F8F06F056FEB9
:1001B0004FF0000080F31188BDE808401968086816
:1001C000B0E8F00F80F30988BFF36F8F704700BF6E
:1001D00028010020EFF305807047000006488047A3
:1001E00006480047FEE7FEE7FEE7FEE7FEE7FEE71C
:1001F000FEE7FEE7FEE7FEE7053A000831010008EA
:10020000202A04DB203A21FA02F00021704721FA6B
:1002100002F3D040C2F120029140084319467047D2
:1002200000487047807E000840EA01039B0703D026
:1002300009E008C9121F08C0042AFAD203E011F825
:10024000013B00F8013B521EF9D27047D2B201E0E7
:1002500000F8012B491EFBD270470022F6E710B5CB
:1002600013460A4604461946FFF7F0FF204610BD24
:10027000F0B480EA0102D40F4200B2EB410F02D287
:100280000246084611464A0042D0C30DDDB2C1F312
:10029000C752AD1A202D35DAC1F3160141F4000220
:1002A00004B15242C5F1200602FA06F12A41104477
:1002B000B3EBD05F23D0C4B1012DA0EBC35009DC58
:1002C000F0BC4FF0004202EAC352DBB200F500007E
:1002D00000F0D0B9400000F1807000EBC350A0F1F5
:1002E000807040EAD170490009E0490841EAC071D4
:1002F000A0EBC35000F50000400800EBC350F0BC79
:1003000000F0AFB96142012202EB4101001BF6E7A8
:10031000F0BC704781F00041AAE780F00040A7E7F9
:1003200080EA010210B502F00043400022D04A00EA
:100330001FD0010E01EB1261C0F35600C2F356024A
:1003400040F4000042F40002A0FB022000047F39C8
:10035000140400D0401C50EA124001D44000491E51
:10036000C2B20C0604EBD010401C4008802A02D018
:1003700003E0002010BD20F00100002900DA002079
:10038000184310BD30B480EA010202F0004530F09D
:10039000004221F0004013D090B1C30DD40DC2F340
:1003A0001601C0F31600E41A41F4000140F4000203
:1003B0007D34914201D3641C00E04900002C02DA34
:1003C00030BC002070474FF400000023914201D35D
:1003D000891A034340084FEA4101F7D151B19142D4
:1003E00002D14FF0004105E002D24FF0010101E0DF
:1003F0006FF0010103EBC450284430BC00F031B968
:100400002DE9FE4F81EA030404F0004421F000418D
:1004100000944FF0000B23F0004350EA01045ED03B
:1004200052EA03045BD0C3F30A54C1F30A552C44C7
:10043000A4F2F3340194A0FB0254C1F3130141F47C
:100440008011C3F3130343F4801301FB024400FB48
:10045000034E840A970A44EA815447EA8357A4FB6F
:10046000076802958D0A05FB07854FEA932C04FB6C
:100470000C542705029D4FEA065847EA1637B5EB9C
:1004800008056EEB070C870E920E47EA811742EAC9
:100490008312A7FB0201B6EB0B0164EB00042B0DEA
:1004A00043EA0C335E1844EB1C50DA465146E7FB36
:1004B0000201C5F313044FEA0B3343EA14534FEA26
:1004C0000432019C43EA0603A4F10C040294009C4C
:1004D000CDE900B400F00BF903B0BDE8F08F0020C7
:1004E0000146F9E770B521F0004303430CD0C1F396
:1004F0000A550024D5EB040564EB0403D617AD1AA6
:10050000B34102DB0020014670BD201841EB0251CF
:1005100070BDC10F80EAE0700844CA07962300212D
:1005200000F0A8B896230022114600F0A3B80EB53B
:1005300040F2334102910021CDE900110A460B46F9
:1005400000F0D5F803B000BD00F0004220F00040FC
:10055000C10DC0F3160040F400007F2901DA00202D
:100560007047962903DCC1F19601C84001E0963935
:100570008840002AF4D04042704720F00040C10D6E
:10058000C0F3160040F400007F2901DA0020704714
:10059000962903DCC1F19601C8407047963988401E
:1005A000704700F0004230F000400AD0C10D01F564
:1005B0006071C0F3160042EA0151C20840071143BE
:1005C000704700200146704701F0004330B421F02D
:1005D000004150EA010206D00A0DA2F56072C1F393
:1005E0001301002A02DC30BC00207047440F44EAAB
:1005F000C104C100E01830BC00EBC25000F031B8BB
:100600002DE9F05F0546002092469B468846064647
:10061000814640241BE02846414647462246FFF7D4
:10062000EFFD53465A46C01A914110D31146184661
:10063000224600F0BDF82D1A67EB01084F4622460E
:100640000120002100F0B4F817EB00094E41201EF4
:10065000A4F10104DFDC484631462A464346BDE8A2
:10066000F09F0029A8BF7047401C490008BF20F038
:100670000100704710B4B0FA80FC00FA0CF050EAA8
:10068000010404BF10BC704749B1CCF1200421FA29
:1006900004F411FA0CF118BF012121430843A3EB24
:1006A0000C01CB1D4FEA00614FEA102042BF002031
:1006B00010BC704700EBC35010440029A4BF10BC0D
:1006C0007047401C490008BF20F0010010BC704773
:1006D00010B5141E73F1000408DA401C41F100014A
:1006E00092185B411A4301D120F0010010BD2DE9A1
:1006F000F04D92469B4611B1B1FA81F202E0B0FA98
:1007000080F22032904600F053F804460F4640EA4B
:100710000A0041EA0B0153465A46084313D01146DA
:1007200053EA010019D0C8F140025046FFF768FDB6
:1007300005460E4650465946424600F039F80843F1
:1007400005D0012004E020463946BDE8F08D0020A8
:10075000054346EAE0762C4337430A986305E40AEA
:10076000A0EB08000022FD0A44EA47540A3002D5F3
:1007700000200146E9E7010510196941DDE9084556
:1007800000196941BDE8F04DA2E70000064C074D95
:1007900006E0E06840F0010394E807009847103451
:1007A000AC42F6D3FFF7C8FCA07E0008C07E00086C
:1007B000202A04DB203A00FA02F100207047914021
:1007C000C2F1200320FA03F319439040704770B53B
:1007D0008C1810F8015B15F0070301D110F8013BEC
:1007E0002A1106D110F8012B03E010F8016B01F873
:1007F000016B5B1EF9D12B0705D40023521E0DD4CB
:1008000001F8013BFAE710F8013BCB1A921C03E018
:1008100013F8015B01F8015B521EF9D5A142D8D350
:10082000002070BD014800F073BA00009015002050
:1008300070B5044600688168C943C9071CD1816846
:1008400021F00101816001F0CDF905460FE000BF04
:1008500001F0C8F9401B022809D9A06A40F0100035
:10086000A062E06A40F00100E062012070BD2068F3
:100870008068C043C007EBD0002070BD10B50146B2
:10088000406A826A12F0500F05D0006A026BBDE820
:10089000104008461047816A41F400718162016886
:1008A0008968C1F3424107290CD1C16851B9816AF5
:1008B00021F480718162816AC90403D4816A41F0A4
:1008C0000101816200F018FA10BD10B5406A816A1A
:1008D00041F040018162C16A41F00401C16200F04F
:1008E00016FA10BD10B5406A00F010FA10BD0000F5
:1008F000F8B500260446009600688168C943C90718
:1009000028D0816841F001018160134813490068D3
:10091000B0FBF1F000E0401E00900028FBD101F098
:1009200061F9054611E000BF01F05CF9401B0228A7
:100930000BD9A06A40F01000A062E06A40F001000C
:10094000E06284F824600120F8BD20688068C0431C
:10095000C007E9D10020F8BD2401002040420F006B
:10096000FEE70000014800F01DBD0000C01500209A
:10097000014800F017BD0000C817002030B590F8FE
:1009800040500124AC40C56B6C60046863604368F0
:10099000102B036803D099600068C26030BD9A6074
:1009A0000068C16030BD7047102001F015B8704775
:1009B00006490020C8610648016941F0040101614F
:1009C000016941F0400101617047000050180020AA
:1009D00000200240064A0021D16106490A6942F01E
:1009E00002020A614861086940F0400008617047EE
:1009F0005018002000200240044B0022DA61044A13
:100A0000136943F0010313610180704750180020FF
:100A10000020024014480022C168CB06134904D5C7
:100A2000CA6942F00202CA611022C3685B0705D599
:100A3000CB6943F00103CB6142F00402C369DB07D9
:100A400007D0CB6943F00403CB61C16921F00101F8
:100A5000C161A2F58071013901D0C2607047C169DE
:100A600021F00101C16170470020024050180020B0
:100A700070B5054601F0B6F80646114C09E0681C51
:100A800007D025B101F0AEF8801BA84201D90320A0
:100A900070BDE068C007F2D1E068800601D5202073
:100AA000E060E068C00605D4E069C00702D1E068F4
:100AB000400703D5FFF7AEFF012070BD002070BDD9
:100AC0000020024004484068406B0068406880B2E3
:100AD000C0F1320080B270473800002003220021AC
:100AE000012006F023FA104CE06205F051FE0F4E93
:100AF0000125002086F8565004F08EFA012004F0FB
:100B0000C1FA032005F0D6F90027A079E17908425F
:100B100005D0C82004F080FD86F83F50A7716420FE
:100B200004F07AFDF1E700009C000020F4020020B0
:100B3000F8B500250446009590F82400012808D057
:100B4000012084F824002046FFF772FE060002D040
:100B50004BE00220F8BDA06A20F4885040F002006B
:100B6000A062022001F0FAF822490968B1FBF0F016
:100B7000400000E0401E00900028FBD12046FFF717
:100B8000B7FE2068816841F00801816001F02AF811
:100B9000074604E001F026F8C01B0A2811D8206897
:100BA00080680007F6D42068816841F00401816004
:100BB00001F018F807460EE001F014F8C01B0A28EF
:100BC00009D9A06A20F0020040F01000A06284F869
:100BD00024500120F8BD206880684007ECD4A06A4A
:100BE00020F0020040F00100A06284F8245030465A
:100BF000F8BD00002401002070470000F8B5002473
:100C0000009490F824202546012A12D0012280F871
:100C100024204A681F23072A0DD20668776B521ECC
:100C200002EB820293409F430B6893401F4377631C
:100C300019E00220F8BD06680D2A0AD2376BD21FD0
:100C400002EB820293409F430B6893401F4337633C
:100C500009E0F76A0D3A02EB820293409F430B686A
:100C600093401F43F7620A68072306680A2A0AD3DB
:100C7000F7680A3A02EB420293409F438B68934025
:100C80001F43F76008E0376902EB420293409F433D
:100C90008B6893401F4337610A68102A01D0112ADC
:100CA00020D1124B02689A4217D193681B0219D4C3
:100CB000936843F4000393600968102912D10C492A
:100CC0000C4A0968B1FBF2F101EB8101490000E037
:100CD000491E00910029FBD104E0816A41F0200106
:100CE0008162012480F824502046F8BD0024014090
:100CF0002401002040420F0010B5034CA06800F012
:100D0000E1F90120207010BD2800002070477047D5
:100D100010B5044600684168890626D50168890730
:100D200023D5A16AC90603D4A16A41F40071A16266
:100D30008168C1F34241072910D1E16871B9416866
:100D400021F020014160A06A20F48070A062A06AB6
:100D5000C00403D4A06A40F00100A0622046FFF75F
:100D6000CBFF21686FF01200086020684168090617
:100D70002ED5016849072BD5A16AC90603D4A16AFB
:100D800041F40051A1628168C1F30231072909D001
:100D90004168490515D48168C1F34241072910D142
:100DA000E16871B9416821F080014160A06A20F4D6
:100DB0008050A062A06AC00503D4A06A40F0010080
:100DC000A0622046FFF718FF21686FF00C00086052
:100DD0002068416849060DD50068C0070AD0A06A9E
:100DE00040F48030A062204600F096F821686FF051
:100DF0000100086010BD00002DE9F04104004FF033
:100E000000057FD0A06A002628B9E66284F8246035
:100E1000204600F083F82046FFF70AFDA16AC906C4
:100E200000D420B1A06A40F01000A0626AE0A16A7C
:100E300021F4885141F00201A162334923688B42B9
:100E4000E16904D1B1F5402F01D14FF40021E768E9
:100E50004FF4807C41EA470261680A43A16861451A
:100E600008D0012906D00021D4F814E0BEF1010F0A
:100E700002D00AE06146F7E7C7B1A76A47F020074A
:100E8000A762E76A47F00107E7625F6827F46947EE
:100E90000F435F60236899681C4F39401143996084
:100EA000A16861450BD0012909D00CE0DFF860E0B2
:100EB000A7690EEB47370F4347F40061E5E7218A46
:100EC0000D05A5F580152168CB6A23F470032B432B
:100ED000CB62216889680F4B1940914208D1E662C4
:100EE000A16A21F0020141F00101A162BDE8F08197
:100EF000A06A20F0020040F01000A062E06A40F01A
:100F00000100E0620120F1E7003C0140FDF7E1FF54
:100F100000E0FFFFFE0E1FFF7047000070B586B0B7
:100F200000250646009501950295039500681D4928
:100F3000884235D11C49886940F40070886188690D
:100F400000F400700490886940F01000886188699E
:100F5000694600F0100004900120009003200190E9
:100F6000124800F045FD134C1148C4E900058020EB
:100F7000C4E90250400020618000C4E90505204614
:100F8000E56100F033FB08B1FFF711FD3462002288
:100F900006211220666200F0AFFE122000F0A0FED3
:100FA00006B070BD00240140001002400010014056
:100FB00008000240C01500202DE9F047894604468C
:100FC0003B4900683B4F0E1D9046884201D0B84215
:100FD00007D1306810F4702F03D001252846BDE8F2
:100FE000F08794F8240001280CD0012084F8240014
:100FF0002046FFF77DFC05004FF0000004D084F888
:101000002400EBE70220EAE7A16A40F6016291437F
:1010100041F48071A1622168B94218D1326812F49A
:10102000702F14D0A16A41F48011A1623168490582
:1010300005D5A16A21F4005141F48051A162A16A51
:10104000C9040AD5E16A21F00601E16206E0A26A5C
:1010500022F48012A2624968E9E7E06284F8240081
:10106000216A15488862216A1448C862216A1448B6
:10107000086321686FF0020008602068816841F40D
:1010800080718160216843464A464C31206A00F0F5
:10109000EBFA20688168C1F342410729816803D0D7
:1010A00041F48011816099E741F4A001FAE7000062
:1010B00000240140002801407D080008E5080008E0
:1010C000CB08000810B5044690F82400012807D08A
:1010D000012084F824002046FFF7AAFB10B10EE09F
:1010E000022010BD2068816821F480718160206A2F
:1010F00000F0A7F8A16A30B141F04001A1620021DF
:1011000084F8241010BD21F4885141F00101F5E765
:1011100070B54379012B1AD0012444710223037165
:10112000D1E9003105680B43296840F6FE76964008
:10113000B14393401943296001680B68C02595406D
:10114000AB430B60047100214171084670BD022061
:1011500070BD70B5040003D02079002510B105E002
:10116000012070BD6571204600F008F80220207152
:10117000256101202071002070BD000000B585B000
:101180000021009101910291039100680E4988426B
:1011900018D10E48C16941F00051C161C16901F027
:1011A00000510491816941F00401816180696946BF
:1011B00000F00400049010200090032001900448E7
:1011C00000F016FC05B000BD0074004000100240A5
:1011D0000008014018B5046800940068104421B16B
:1011E000143000900360002018BD0830F9E730B5D6
:1011F0004279012A12D0012242710223037103684D
:101200001D6802FA01F425431D60002901680B687E
:1012100006D0C3F383430F2B0AD00DE0022030BD6C
:10122000C3F383030F2B07D14B6843F0010302E0A4
:101230004B6843F002034B60027100214171084684
:1012400030BD01680A6822F00E020A6001680A686F
:1012500022F001020A6090F84020C36B012101FADC
:1012600002F25A6080F82110002180F82010084610
:10127000704700002DE9F05F90F82110002402294A
:1012800003D004218163012485E001680A6822F00B
:101290000E020A6001680A6822F001020A603F4EED
:1012A0003E4FB215DFF8F4C0DFF8F090DFF8ECA0A5
:1012B000DFF8E8B0DFF8E4E00168783F13011502D9
:1012C000ACF1640CA9F15009AAF13C0AABF1280B6E
:1012D000AEF1140E4FF48018B14227D9B9420ED0A6
:1012E000614512D049451DD0514518D0594518D0F7
:1012F000714501D1424615E0294EB14201D101228A
:1013000010E0274E1436B14201D110220AE0244EDB
:101310002836B14206D0224A3C32914201D11A46C7
:1013200000E02A461E49091F0A602BE0B94213D08B
:10133000614517D0494522D051451DD059451DD092
:10134000714501D142461AE0B14202D14FF080729C
:1013500015E0134EB14201D1012210E0104E1436B7
:10136000B14201D110220AE00D4E2836B14206D01A
:101370000B4A3C32914201D11A4600E02A46074905
:1013800080394A60012180F82110002180F8201066
:10139000416B01B188472046BDE8F09F80000240C4
:1013A000080402402DE9F05FC16B0A6801680B6810
:1013B000046C4FF0040808FA04F8844D844E854FFD
:1013C000DFF814C2DFF81492DFF814A2DFF814B2C9
:1013D000DFF814E218EA020F65D05FEA437862D5BD
:1013E0000A68920603D40A6822F004020A60DFF851
:1013F000F0814FF48062016808F1140813011402AF
:10140000414524D9A9420DD0B1420FD0B9421AD0DA
:10141000614515D0494515D0514501D1120312E05F
:10142000594501D104220EE0714501D140220AE064
:101430006D4D1435A94206D06B4A2832914201D134
:101440001A4600E022466749091F0A6029E0A942BE
:1014500013D0B14215D0B94220D061451BD04945C7
:101460001BD0514502D14FF4800217E0414502D113
:101470004FF0806212E0594501D104220EE071451F
:1014800001D140220AE0584D1435A94206D0564AEF
:101490002832914201D11A4600E022464B490839D0
:1014A0004A60C16A71E04FF0020808FA04F818EACD
:1014B000020F70D05FEA83786DD50A68920606D471
:1014C0000A6822F00A020A60012180F82110DFF880
:1014D00010814FF40072016808F11408130114021E
:1014E000414524D9A9420DD0B1420FD0B9421AD0FA
:1014F000614515D0494515D0514501D1120312E07F
:10150000594501D102220EE0714501D120220AE0A5
:10151000354D1435A94206D0334A2832914201D1C3
:101520001A4600E022462F49091F0A6029E0A94215
:1015300013D0B14215D0B94220D061451BD04945E6
:101540001BD0514502D14FF4001217E0414502D1A2
:101550004FF0007212E0594501D102220EE07145B0
:1015600001D120220AE0204D1435A94206D01E4A9E
:101570002832914201D11A4600E022461349083927
:101580004A60002180F82010816A00291CD0BDE843
:10159000F05F0847FFE70825A540154214D01A0759
:1015A00012D50A6822F00E020A6090F84020C36B40
:1015B000012101FA02F25A60816380F821100021B2
:1015C00080F82010016BE0E7BDE8F09F08000240C2
:1015D0001C0002403000024044000240580002401B
:1015E0006C000240080402401C04024030B560B1A7
:1015F0001A4B026814219A4209D2194B1344B3FBC7
:10160000F1F18900016417490AE0012030BD134B54
:101610005B421344B3FBF1F1890001640F490839BF
:10162000C163022180F82110136843F6F0718B43E7
:10163000F0E901142143D0E902452C432143046918
:1016400021434469214384692143194311600021E6
:101650004163012242770177084630BD0804024009
:10166000F8FFFDBF0000024070B5044690F820006E
:10167000002501280CD0012084F8200094F8216076
:101680000020012E06D084F820000225284670BDD7
:10169000022070BD022684F82160A06320680668DD
:1016A00026F0010606602046FFF768F9E06A002888
:1016B0002068016802D041F00E0106E021F004012B
:1016C00001602068016841F00A010160206801683A
:1016D00041F001010160D9E770B5044600F082FADB
:1016E0000546601C02D004480078044400F07AFAF1
:1016F000401BA042FAD370BD180100202DE9F0472D
:10170000054626480F460126017E01290FD00121FA
:10171000814601762868DFF888804CF25034022830
:1017200008D0A2462046FFF7A3F9A8B131E0022075
:10173000BDE8F0872046FFF79BF908BB0120FFF7C3
:1017400037F92046FFF794F9D8F81010064621F033
:101750000401C8F810101CE04FF0FF303860AC688E
:1017600011E02046FFF736F95046FFF781F9D8F827
:101770001010060021F00201C8F8101001D03C60E2
:1017800007E004F50064D5E9020100EBC120A042A6
:10179000E7D8002189F818103046C9E75018002012
:1017A000002002400348016941F0800101610020EE
:1017B00070470000002002402DE9F05F07461C48FA
:1017C00088460024017E15461E46012909D00121C4
:1017D000814601764CF2503A5046FFF749F918B16C
:1017E00022E00220BDE8F09F012F02D0022F00D09E
:1017F0000427D346DFF83CA0220128463146FEF7F5
:10180000FFFC81B208EB4400FFF7F6F85846FFF7FB
:101810002FF9DAF8102022F00102CAF8102018B9C6
:10182000641CE4B2BC42E7D3002289F81820D9E74F
:101830005018002000200240064900200A691206C4
:1018400007D5054A4A60054A4A600969090600D574
:10185000012070470020024023016745AB89EFCD8E
:101860002DE9F04710287FD103F03EFD564C60650E
:10187000E16900F00300491CE161A072002003F05F
:101880002FFD2065616D4A0502D5A289521CA281F7
:101890008A0502D5E289521CE281626A4B4D521CD4
:1018A00005F142034A4F11F4C06F99464FF000060C
:1018B00062625BD1E9B395F83F1011B105EB82018B
:1018C000C861702003F01AFD606A05284CD1666279
:1018D000E661266226704FF0010885F81980A0792C
:1018E00050B1287E012802D0022803D004E084F8F9
:1018F000048001E084F80580484605F0A7FE3878AA
:1019000000B13E7005F0B2FEA5F8420004F076FF8B
:10191000B5F95410B5F84200403504F0E9FE25F859
:10192000010915F83F0900281ED02848052120305C
:1019300001E01BE018E003F09DFA26490A890978C6
:10194000801A401A03D485F83E60E88602E085F8E4
:101950003E802887E88EB0F5FA7F01D985F834609B
:1019600003F032FB85F83480BDE8F0872078401C16
:10197000207003206876184605F068FE95F856003A
:10198000E0B1387828B13E7005F070FEA5F842004D
:1019900006E005F06BFEA5F842002078401C2070A0
:1019A000606A05280AD1666204F028FFB5F9541070
:1019B000B5F84200403504F09BFE2880BDE8F047B2
:1019C000702003F09BBC00009C000020F40200206B
:1019D00028000020740D0020044910B50A68024256
:1019E00002D00860FFF73CFF10BD00001404014066
:1019F0002DE9F84FDFF8B8A100220AF1040B1446D4
:101A000001274FF00F090BF1040E00BF0B6807FA16
:101A100004F52B40AB4274D1DFF898C14E68A6EBB9
:101A20000C0866452BD00DDC032E34D005DC36B314
:101A3000012E19D0022E2FD11BE0112E16D0122EFE
:101A40002AD119E0B8F5881F19D006DCB8F5803F17
:101A500015D0B8F5801F1FD111E0B8F5001F0ED0CA
:101A6000B8F5041F18D10AE0CA6815E0CA68121D4B
:101A700012E0CA6808320FE0CA680C320CE08A68CB
:101A80002AB1012A4FF0080203D0456104E0042284
:101A900002E0056100E00022FF2B01D8064601E0CC
:101AA00000F104064FEA840501D9A5F12005D6F816
:101AB00000C009FA05F82CEA080C02FA05F54CEA10
:101AC000050CC6F800C04D68ED006AD53A4DAE6908
:101AD00046F00106AE61AD6924F0030605F001058C
:101AE0000095364D06EB050CDCF80850A6074FEACA
:101AF000167809FA08F6B543314EB04202D10026F5
:101B00001AE04EE02F4EB04201D1012614E02E4ED5
:101B1000B04201D102260FE02C4EB04201D1032683
:101B20000AE02B4EB04201D1042605E0294EB04216
:101B300001D1052600E0062606FA08F62E43CCF869
:101B400008604D68DAF80060ED03554601D51E4384
:101B500000E09E432E604D68AD0305D5DBF80060C4
:101B60001E43CBF8006004E0DBF800509D43CBF847
:101B700000504D68DEF80060ED02754601D51E4349
:101B800000E09E432E604D68AD0205D5084D0C3532
:101B90002E681E432E6004E0054E0C3635689D43CA
:101BA0003560641C102CFFF431AFBDE8F88F0000E5
:101BB000000401400000111000100240000001402C
:101BC00000080140000C01400010014000140140D9
:101BD00000180140001C01400AB10161704709046E
:101BE000FBE70000014880687047000018010020F2
:101BF0000248816802781144816070471801002012
:101C0000074810B5016841F010010160032000F0A1
:101C100093F8002000F006F800F03EF8002010BD18
:101C20000020024000B5014687B00022192000F0D4
:101C300063F8192000F054F81348816941F40061F9
:101C40008161806905A900F400600690684600F093
:101C50001BFA00F049FA0D490D4AB0FBF1F10D48AD
:101C6000491E0260416040F2E7320021C0E90321D1
:101C7000816000F065FE10B1012007B000BD05488D
:101C800000F0B6FEF9E700000010024040420F00ED
:101C9000002C01400C1800200F4808B5816941F064
:101CA00001018161816901F001010091C16941F087
:101CB0008051C161C069002200F0805000900F2166
:101CC000901E00F019F80548416821F0E06141F0EC
:101CD0000071416008BD000000100240000001409A
:101CE00000F01F02012191404009800000F1E02036
:101CF000C0F8001170470000F0B40E4B1B680C4692
:101D0000C3F30223C3F10705042D00D90425191DCF
:101D1000072901D2002300E0DB1E012606FA05F1A7
:101D2000491E214099409E40761E16403143F0BC2A
:101D300001F042BD0CED00E0064900F00702086822
:101D40004FF6FF03184040EA0220034A10430860A0
:101D5000704700000CED00E00000FA0510B52CA45F
:101D600001461DCC86B08DE81D002DA02D4C0068CD
:101D70000490002004292FD00BDC01292FD0022948
:101D800028D100F0B1F96168C1F38131491C4900E3
:101D90001EE0082920D010291CD161682268D201D8
:101DA00018D5C1F38342C9031DF8020009D5616843
:101DB00004AAC1F34041515C1B4AB2FBF1F1484314
:101DC00001E01A4948436168490203D440000321F5
:101DD000B0FBF1F006B010BD00F096F9FAE7226A08
:101DE000C2F30121012903D1920701D5C803F1E70C
:101DF000022905D1626A920702D549F64040E9E717
:101E00000329E7D121688903E4D54FF22440E1E7B3
:101E100002030405060708090A0B0C0D0E0F10102B
:101E2000010200000010024000127A0000093D008B
:101E30002DE9F84305460078354CC00754D0E069D9
:101E40000026C00008D4E06940F08050E061E069FD
:101E5000012600F0805000902E480168C90512D478
:101E60000168804641F480710160FFF7BBFE0746C0
:101E700005E000BFFFF7B6FEC01B642823D8D8F8E2
:101E80000000C005F6D5206A10F4407021D0A98862
:101E900001F4407181421CD0206A1F49012220F4C4
:101EA00040700A6000220A602062C00711D0FFF76C
:101EB00099FE074641F2883808E000BFFFF792FE1E
:101EC000C11B414502D90320BDE8F883206A800781
:101ED000F4D5206A696820F44070084320621EB17E
:101EE000E06920F08050E0612878800705D56068BF
:101EF000A96820F44040084360602878C00605D5F2
:101F00006068696920F48000084360600020DBE7B6
:101F10000010024000700040400442422DE9F047AA
:101F2000DFF8548105460E46D8F8000000F007009F
:101F3000B0420CD2D8F8001021F007013143C8F8A4
:101F40000010D8F8000000F00700B0426FD12868F8
:101F50004A4C810712D5400703D5606840F4E06021
:101F600060602878000703D5606840F460506060C6
:101F70006068A96820F0F000084360602878C00716
:101F800044D06868012816D02168022816D0890735
:101F900000294CDA616821F0030101436160FFF719
:101FA00021FE6968074641F2883001290ED00229D6
:101FB000814618D026E021688903E9E78901E7E72F
:101FC000FFF710FEC11B494501D918E08146606842
:101FD000C0F381000128F3D118E000BFFFF702FE33
:101FE000C11B49450BD86068C0F381000228F5D1B8
:101FF0000CE000BFFFF7F6FDC11B494502D90320E5
:10200000BDE8F087606810F00C0FF3D1D8F800102D
:10201000404601F00701B1420BD9016821F00701E8
:1020200031430160006800F00700B04201D0012098
:10203000E6E72878400705D56068E96820F4E060A5
:10204000084360602878000706D56068296920F495
:10205000605040EAC100606000F056F86168084ACC
:10206000C1F30311515CC840064908600020FFF726
:10207000D9FD0020C4E7000000200240001002400B
:10208000E47D0008240100200F2202600C4A5368FE
:1020900003F003034360536803F0F0038360536865
:1020A00003F4E063C36052684FF4E06303EAD202D2
:1020B00002610448006800F00700086070470000F3
:1020C00000100240002002400448054900684968A9
:1020D000044AC1F30221515CC8407047240100202A
:1020E00000100240F47D0008044805490068496872
:1020F000044AC1F3C221515CC8407047240100204A
:1021000000100240F47D000812A185B00FC98DE8CF
:102110000F0014A0144A006804905168134801F09D
:102120000C03042B10D0082B0ED1C1F38343C90339
:102130001DF803000AD5516804AAC1F34041515C5F
:102140000A4A5043B0FBF1F005B0704708494843D4
:10215000FAE7000002030405060708090A0B0C0D44
:102160000E0F1010010200000010024000127A0051
:1021700000093D002DE9F84F04460078B94DC0072D
:1021800048D06868C0F38100012807D06868C0F3B0
:102190008100022809D16868C00306D52868800339
:1021A00038D5606800286FD034E06068B0F5803FB3
:1021B0000BD010B1B0F5A02F11D0286820F48030DA
:1021C0002860286820F4802002E0286840F48030ED
:1021D0002860606888B1FFF705FD064609E02868B9
:1021E00040F480202860F0E7FFF7FCFC801B6428A7
:1021F00075D828688003F7D50CE0FFF7F3FC064696
:1022000005E000BFFFF7EEFC801B6428F0D82868CB
:102210008003F7D42078944E80074FF001094FF0E7
:1022200000083BD5686810F00C0F07D06868C0F351
:102230008100022809D16868C00306D42868800795
:1022400014D5206901281FD110E02069B0B1C6F86B
:102250000090FFF7C7FC074605E000BFFFF7C2FC90
:10226000C01B0228C4D828688007F7D52868616990
:1022700020F0F80040EAC10028600FE0C6F80080B6
:10228000FFF7B0FC074606E0E9E000BFFFF7AAFC55
:10229000C01B022823D828688007F7D420780007BD
:1022A0002CD57248A169D9B1C0F80090FFF79AFC0B
:1022B000074604E0FFF796FCC01B02280FD8686AA7
:1022C0008007F7D56A484FF4FA510068B0FBF1F087
:1022D000009000BF0098411E0091FAD20EE080E00D
:1022E000C0F80080FFF77EFC074604E0FFF77AFCA9
:1022F000C01B022875D8686A8007F7D42078400789
:1023000060D5E8690027C00008D4E86940F0805033
:10231000E861E869012700F08050009055480168A5
:10232000C90513D40168834641F480710160FFF749
:1023300059FC824606E000BFFFF754FCA0EB0A0000
:1023400064284ED8DBF80000C005F5D5E068012808
:102350000AD008B1052813D0286A20F001002862AD
:10236000286A20F0040002E0286A40F00100286298
:10237000E06841F2883B98B1FFF734FC82460BE0FD
:10238000286A40F004002862EEE700BFFFF72AFC4D
:10239000A0EB0A0159455AD8286A8007F6D50CE007
:1023A000FFF720FC824605E0FFF71CFCA0EB0A01CA
:1023B00059454CD8286A8007F6D41FB1E86920F047
:1023C0008050E861E06988B36968C1F3810102293E
:1023D00045D00228C6F8608004D0FFF703FC04460D
:1023E00038E034E0FFF7FEFB074604E0FFF7FAFBB6
:1023F000C01B02282BD828688001F7D4206AB0F5CA
:10240000803F05D16868A16820F400300843686007
:10241000D4E908010843696821F47411084368602D
:10242000C6F86090FFF7DEFB044606E015E000BF4B
:10243000FFF7D8FB001B022809D828688001F7D5D0
:102440000BE000BFFFF7CEFB001B022802D90320E0
:10245000BDE8F88F28688001F4D40020F8E7012057
:10246000F6E70000001002400000424280044242B1
:10247000240100200070004070B5040005D0002544
:10248000A56294F8510010B104E0012070BD20460F
:1024900000F034F8022084F851002068016821F02F
:1024A00040010160D4E901010843D4E9031211435A
:1024B000084361690843218B01F400710843E16915
:1024C0000843216A0843A16A084321680860A0699B
:1024D000042101EA1040616A0843216848602168CC
:1024E000E06A08612068C16921F40061C161656525
:1024F000012084F85100002070BD000030B585B087
:1025000000240094019402940394234D036823480B
:1025100002210322AB4216D1836943F480538361C5
:10252000836903F480530493836943F00403836154
:102530008069039200F004000490A020CDE900011E
:102540006946174823E0174DAB4222D1C36943F4D3
:102550008043C361C36903F480430493836943F0F8
:10256000080383618069104D00F0080004904FF467
:102570002040CDE90001039269462846FFF738FA6A
:102580004FF48040CDE90004694628460294FFF7E5
:102590002FFA05B030BD00000030014000100240AD
:1025A0000008014000380040000C01402DE9F84FC0
:1025B000044690F850000026994617460D4601281B
:1025C0000DD04FF0010B84F850B0FFF70BFB8046A5
:1025D00094F85100B246012804D0022694E002206B
:1025E000BDE8F88F002D7BD0002F79D0032084F830
:1025F0005100C4F854A02563A786E786C4F838A024
:10260000A4F83CA0A4F83EA0C4F844A0C4F840A09C
:10261000A068B0F5004F04D12068016841F4804102
:10262000016020680168490603D4016841F0400157
:102630000160E068B0F5006F606804D030B3E08EF0
:10264000012823D03EE010B1E08E01281AD135F8E0
:10265000021B206805E020688168890706D535F8E7
:10266000021BC160E08E401EE0860BE0B9F1000F56
:1026700034D0B9F1FF3F05D0FFF7B4FAA0EB080161
:1026800049452BD2E08E0028E5D11EE0216815F8DF
:10269000010B087306E020688168890706D515F8E4
:1026A000011B0173E08E401EE0860BE0B9F1000FC4
:1026B00014D0B9F1FF3F05D0FFF794FAA0EB080161
:1026C00049450BD2E08E0028E5D14B46012202217C
:1026D0002046CDF8008001F096F810B1032613E0F3
:1026E00011E042464946204601F07DF818B1012626
:1026F0002020606508E0A06818B92068C16880687B
:102700000090606D00B1012684F851B084F850A0AB
:10271000304665E72DE9F84F044690F85000002652
:102720000A9F9A4693460D464FF0010801280ED0A5
:10273000012084F85000FFF755FA814694F85100C3
:10274000616801280CD0B1F5827F07D102E0022038
:10275000BDE8F88FA16809B9042801D00226BDE0C0
:1027600055B1BBF1000F07D0BAF1000F04D094F8B7
:102770005100012802D004E00126AFE0052084F8D2
:10278000510000206065C4F838B0A4F83EA0A4F859
:102790003CA02563A4F836A0A4F834A020646064AB
:1027A00020680168490603D4016841F040010160D6
:1027B000E068B0F5006F606804D0E8B3E08E0128EF
:1027C0003BD06AE010B1E08E01282ED1216835F8A7
:1027D000020BC860E08E401EE08626E0B8F1000FD4
:1027E0000DD0E08E58B120688168890707D535F88B
:1027F000021BC160E08E401EE0864FF00008E08FB3
:1028000058B120688168C90707D0C0682BF8020B4F
:10281000E08F401EE0874FF00108781C05D0FFF7DD
:10282000E1F9A0EB0900B84246D2E08E0028D5D1EC
:10283000E08F0028D2D136E0FFE7216815F8010BC0
:102840000873E08E401EE08627E000BFB8F1000F5D
:102850000DD0E08E58B120688168890707D515F83A
:10286000011B0173E08E401EE0864FF00008E08FF0
:1028700058B120688168C90707D0C0680BF8010B00
:10288000E08F401EE0874FF00108781C05D0FFF76D
:10289000A9F9A0EB0900B8420ED2E08E0028D5D1EC
:1028A000E08F0028D2D13B46012202212046CDF8FC
:1028B000009000F0A8FF08B103260FE04A46394611
:1028C000204600F090FF18B101262020606505E049
:1028D000A06818B92068C16880680090012084F859
:1028E0005100002084F85000304631E770477047AF
:1028F00030B590F83C20012A20D0012280F83C20FD
:10290000022380F83D3003685C6824F070045C604A
:1029100003685C680D682C435C6003689C6824F065
:1029200080049C6003689C6849680C439C6080F844
:102930003D20002180F83C10084630BD022030BD0B
:1029400010B5040003D094F83D0010B107E0012059
:1029500010BD002084F83C00204600F00DF8022055
:1029600084F83D00211D206801F010FC012084F84E
:102970003D00002010BD000008B501681948B1F104
:10298000804F11D0184A914217D1C16941F002011C
:10299000C161C069002200F00200009005211D20E5
:1029A000FFF7AAF91D2019E0C16941F00101C161D9
:1029B000C06900F00100009008BD0C4A9142FBD1B3
:1029C000C16941F02001C161C069002200F020000E
:1029D000009005213720FFF78FF93720BDE8084028
:1029E000FFF77EB9001002400004004000140040D0
:1029F0000168CA6842F00102CA600068016841F0DB
:102A0000010101600020704770B5044690F83C0059
:102A1000012817D0012584F83C50022084F83D009D
:102A20002068826822F0770222F47F428260086880
:102A3000502837D00DDC202859D005DC88B3102869
:102A400041D151E0022070BD302853D040283AD106
:102A50003FE060282ED070280BD0B0F5805F03D007
:102A6000B0F5005F2FD110E02068816821F00701E8
:102A700015E0CB68D1E90121206801F0D8FB21687D
:102A8000886840F0770088601DE0CB68D1E90121BB
:102A9000206801F0CCFB2068816841F480418160AE
:102AA00011E01EE0CA684968206801F095FC5021D9
:102AB000206806E0CA684968206801F09EFC602131
:102AC000206801F0BEFB84F83D50002084F83C00F3
:102AD00070BDCA684968206801F07EFC402120680A
:102AE000EFE700212068ECE710212068E9E72021CA
:102AF0002068E6E730212068E3E7704770B50446B8
:102B0000006801694FF00005C943890715D4C16801
:102B1000C943890711D4E91E01610120207720688B
:102B200080698007204602D0FFF7E7FF04E000F04D
:102B3000DFF8204600F061F9257720680169C94374
:102B4000490717D4C168C943490713D46FF004017A
:102B50000161022020772068806910F4407F2046C0
:102B600002D0FFF7CAFF04E000F0C2F8204600F0F0
:102B700044F9257720680169C943090716D4C1685B
:102B8000C943090712D46FF00801016104202077BE
:102B90002068C0698007204602D0FFF7AEFF04E03E
:102BA00000F0A6F8204600F028F925772068016992
:102BB000C943C90617D4C168C943C90613D46FF005
:102BC00010010161082020772068C06910F4407F5F
:102BD000204602D0FFF791FF04E000F089F820467C
:102BE00000F00BF9257720680169C943C90708D1AE
:102BF000C168C943C90704D1891E0161204600F09C
:102C000047F920680169C943090609D4C168C94365
:102C1000090605D46FF0800101612046FFF766FECA
:102C200020680169C943490609D4C168C9434906F6
:102C300005D46FF040010161204600F033F92068AF
:102C40000169C94389060BD4C168C943890607D401
:102C50006FF0200101612046BDE87040FFF747BEDC
:102C600070BD000000B585B0002100910191029176
:102C70000391026819490220B2F1804F1DD0184B10
:102C80009A4218D18A6942F010028A6189690390D8
:102C900001F0100104910102CDE9001069461148CC
:102CA000FEF7A6FE1048416821F4406141F0E06162
:102CB00041F44061416005B000BD8A6942F0040200
:102CC0008A618969009001F004010190CDE9030156
:102CD00069460648FEF78CFEEDE700000010024052
:102CE00000040040001001400000014000080140C5
:102CF000704770B5044690F83C000D4601280DD091
:102D0000012684F83C60022084F83D0042B1042A88
:102D100018D0082A2AD00C2A4DD139E0022070BDE3
:102D2000206801F097FA2068816941F0080181610B
:102D30002068816921F004018161206881692A6924
:102D4000114311E0206801F0B5FA2068816941F46F
:102D5000006181612068816921F48061816120685E
:102D600081692A6941EA0221816124E0206801F039
:102D7000D7FA2068C16941F00801C1612068C169C2
:102D800021F00401C1612068C1692A69114311E081
:102D9000206801F0F9FA2068C16941F40061C1615D
:102DA0002068C16921F48061C1612068C1692A6914
:102DB00041EA0221C16184F83D60002084F83C00B2
:102DC00070BD10B5040003D094F83D0010B107E0C9
:102DD000012010BD002084F83C00204600F00CF8D3
:102DE000022084F83D00211D206801F0CFF9012068
:102DF00084F83D00002010BD7047704710B50446B0
:102E00000068012201F008FA08492068884202D0CF
:102E10000749884203D1416C41F400414164206874
:102E2000016841F001010160002010BD002C01404B
:102E30000034014010B504460068002201F0ECF9AE
:102E4000114841F2111221689310814202D00F48BB
:102E5000814209D1086A104206D1086A184203D19A
:102E6000486C20F4004048642068016A114206D191
:102E7000016A194203D1016821F0010101600120BA
:102E800084F83D00002010BD002C014000340140BA
:102E900000680349884201D1FEF7AABE70470000CE
:102EA000002C0140704710B504460068416994F851
:102EB0003920C1F3C011212A0BD151B1416921F050
:102EC00080014161206B08B1FEF7BBF9204601F09B
:102ED00004FB2068416994F83A20C1F38011222A4A
:102EE0000BD151B1416921F040014161606B08B1E2
:102EF000FEF7A7F9204601F0E2FA002010BD704766
:102F000070B5026804461068D168536910F00F0F5D
:102F100050D003F0010501F4907635435DD0C2072F
:102F200005D0CA0503D5E26B42F00102E263420715
:102F300005D5DA0703D0E26B42F00202E2638207B2
:102F400005D5DA0703D0E26B42F00402E263020720
:102F500005D5DA0703D0E26B42F00802E263E26BC8
:102F6000002A33D0800604D5880602D5204601F019
:102F7000BDFA20684069E16BC0F38010090700D4F6
:102F800028B3204601F09BFA2068416949061AD50A
:102F9000416921F040014161606BA0B11B4941636F
:102FA000606BFEF767F9002810D0606B416BBDE8DD
:102FB00070400847830610D58B060ED52046BDE825
:102FC000704001F093BA2046FFF799FF70BD20468C
:102FD000FFF795FF0020E06370BD030606D50B06E2
:102FE00004D52046BDE8704001F084BB4006F3D50F
:102FF0004806F1D5D168204621F04001D16020215A
:1030000084F8391000F039F970BD00001F44000841
:1030100070B5040004D094F83900002510B106E022
:10302000012070BD84F83850204600F023F8242099
:1030300084F839002068C16821F40051C16020463D
:1030400001F0A0FA2068016921F490410161206833
:10305000416921F02A0141612068C16841F40051B1
:10306000C160E563202084F8390084F83A0000202C
:1030700070BD000070B586B000250646009501952C
:10308000029503950068224988423FD12149886909
:1030900040F480408861886900F480400490886929
:1030A00040F00400886188691B4C00F00400049023
:1030B00048150090022001900320039069462046A5
:1030C000FEF796FC2015CDE90005694620460295DD
:1030D000FEF78EFC124C1148C4E900058020C4E9BB
:1030E000025020202561C4E905502046E561FEF725
:1030F0007DFA08B1FDF75BFC7463002207212520EF
:103100006662FEF7F9FD2520FEF7EAFD06B070BD08
:103110000038014000100240000801405800024001
:10312000C8170020F8B5044690F83A0020283CD192
:10313000C1B3BAB394F83800012836D0012084F81E
:103140003800A162A2850025E563222084F83A00B8
:10315000636B17489862636B1648D862636B1648B6
:103160001863606B134645630846666B2168024628
:103170003046091DFEF778FA206801684168009121
:1031800084F83850C16841F48071C1602068416999
:1031900041F0010141612068416941F04001416114
:1031A0000020F8BDFFE70120FBE70220F9E700005F
:1031B00079440008B54400082F4400087047704760
:1031C0002DE9F843044690F839001F4616460D468F
:1031D000202850D1A5B19EB194F8380001284AD0DA
:1031E000012084F838004FF00008C4F83C8021200A
:1031F00084F83900FEF7F6FCA6848146E68426E0D2
:103200000120BDE8F883E08C401EE084A0684B46B6
:10321000B0F5805F4FF000024FF08001204600972C
:1032200003D001F098FAE8B90DE001F094FAC8B9BA
:1032300028882168C0F308004860206908B16D1C27
:1032400005E0AD1C03E0216815F8010B4860E08C37
:103250000028D8D14B46002240212046009701F09B
:103260007AFA08B10320CCE7202084F8390084F8EA
:1032700038800020C5E70220C3E77047FEE7000062
:103280001CB501F099FD2349684603F00BFA224C66
:10329000DDE90001C4E916012049684603F002FA9D
:1032A000DDE90001C4E9180160342179206801F0EA
:1032B0008FFD1A48C179012920D016490A68026099
:1032C0004A6842608A6882608A898281CA89C2812A
:1032D0000A7C02744A8A42828A8A82828A7D827544
:1032E0000A8B02834A8B4283097F01770121C171D6
:1032F000207901EB5001206801F072FD02F0DAFE46
:103300004FF4FA74064803F083F8204602F084F97B
:10331000F8E700007C0000209C0000205C030020F7
:10332000740000203EB500241148009401940F4918
:10333000029401600125C0E90245446105614FF432
:1033400060214460C161FDF757FD08B1FDF72FFB17
:103350000A20CDE90005694602940548FDF74EFCB8
:10336000002801D0FDF723FB3EBD000000240140F2
:10337000901500201CB500240C4900940A480194C3
:1033800008600846FDF7E5FE08B1FDF710FB009464
:103390000022694605480194FDF7BAFE002801D0D5
:1033A000FDF705FB1CBD0000007400400416002062
:1033B0000D4808B5416941F00101416140690022B1
:1033C00000F00100009005210B20FEF795FC0B207A
:1033D000FEF786FC002205210F20FEF78DFCBDE8DC
:1033E00008400F20FEF77CBC0010024000B585B0FD
:1033F000142207496846FCF717FF0021684602F0CF
:1034000017F90449086004F0E9F905B000BD0000AF
:10341000D07D0008140100202DE9F04786B000247B
:1034200050480094019402940394816941F0100182
:103430008161816901F010010491816941F02001ED
:103440008161816901F020010491816941F00401E9
:103450008161816901F004010491816941F00801F1
:1034600081618069404F00F008000490002243F21F
:10347000E0513846FEF7B0FBDFF8F090002241F64D
:1034800005014846FEF7A8FBDFF8E480002240F281
:1034900003514046FEF7A0FB012211034046FEF710
:1034A0009BFBDFF8D0A0002204215046FEF794FBDE
:1034B00078141126CDE90006022569463846CDE983
:1034C0000245FEF795FA41F20500CDE9000669468E
:1034D0004846CDE90245FEF78BFA102000902648B9
:1034E0000126CDE9010669463846FEF781FA4FF418
:1034F0008F50CDE9000669463846CDE90245FEF712
:1035000077FA41F20350CDE9000669464046CDE91D
:103510000245FEF76DFAA802CDE900066946484665
:10352000CDE90245FEF764FA6802CDE90006032002
:10353000CDE9024069463846FEF75AFA0420CDE943
:10354000000669465046CDE90245FEF751FA0022D1
:1035500005210A20FEF7D0FB0A20FEF7C1FB06B0CA
:10356000BDE8F08700100240001001400008014053
:10357000000C01400014014000002110104810B55B
:103580000E4901604FF48271416000210222816086
:10359000C0E903121202C0E905120822C0E907219E
:1035A000416281620A21C162FEF766FF002803D0F2
:1035B000BDE81040FDF7FBB910BD00000030014030
:1035C000181600200F4810B50D4901604FF48271A4
:1035D0004160002181600122C160C0E904125202F1
:1035E000C0E906210162416281620A21C162FEF7DF
:1035F00043FF002803D0BDE81040FDF7D8B910BD47
:10360000003800407016002010B58EB000240794DA
:10361000089409940A940B941C2168460C94FCF7B6
:103620001CFE1D484FF08041C0E900144FF4FA61C0
:10363000C0E9024104618461FFF782F908B1FDF736
:10364000B6F94FF48050079007A91348FFF7DCF94B
:1036500008B1FDF7ACF91048FFF7B3FB08B1FDF76F
:10366000A6F90B940BA90C480C94FFF741F908B18B
:10367000FDF79DF96020CDE900040294042269461B
:1036800005480494FFF735FB08B1FDF790F90248AF
:10369000FFF7E8FA0EB010BDC816002010B58EB0C6
:1036A00000240794089409940A940B941C216846FA
:1036B0000C94FCF7D2FD1F481D4901604021C0E970
:1036C00001146421C0E903148461FFF739F908B1DA
:1036D000FDF76DF94FF48050079007A91548FFF7E3
:1036E00093F908B1FDF763F91248FFF76AFB08B1D7
:1036F000FDF75DF92020CDE90B040BA90D48FFF77C
:10370000F7F808B1FDF753F9602000900120CDE9EA
:1037100001040C22694607480494FFF7EAFA08B14D
:10372000FDF745F90348FFF79DFA0EB010BD000004
:1037300000040040081700201CB500240E48009427
:103740000C49019401604021C0E9011432218461D7
:10375000C160FFF7F5F808B1FDF729F90094694653
:1037600005480194FFF7C4F8002801D0FDF71FF9C0
:103770001CBD000000140040481700200C4810B584
:103780000A4901604FF4E1314160002181600C225F
:10379000C160C0E904128161C161FFF739FC0028F2
:1037A00003D0BDE81040FDF702B910BD003801405C
:1037B00088170020FEE770470907090E002806DA7F
:1037C00000F00F0000F1E02080F8141D704700F1B8
:1037D000E02080F8001470470021C0F80018C0F8FD
:1037E00004180846704738B50B460092044600227C
:1037F000802100F008F8002804D0606D40F020001F
:103800006065032038BD2DE9F0411D4617460E4680
:103810000446DDF8188035E0681C33D02DB1FEF782
:10382000E1F9A0EB0800A8422CD32068416821F000
:10383000E00141606068B0F5827F0BD1A068B0F50F
:10384000004F02D0B0F5806F04D12068016821F0EC
:1038500040010160A06AB0F5005F0AD120680168EC
:103860004DF6FF72114001602068016841F400517B
:103870000160012084F85100002084F850000320EA
:10388000BDE8F0812068806836EA000004D000209E
:10389000B842C1D10020F3E70120F9E704F00EF8A7
:1038A0002D48FFF799FF03262C4C40F226254FF0B8
:1038B00002080427E07C072849D2DFE800F048042A
:1038C0000C15263D44002648017C827D007F114076
:1038D000014214D13BE0B4F84000A84237D901209E
:1038E00001F09AFBE67432E0B4F84000A84203D934
:1038F000022001F091FB24E0B0F58C7F27D200205C
:1039000001F08AFB84F8138021E0B4F84000B0F5A0
:10391000C87F06D2012001F0B5FB012001F07CFB3D
:10392000E674E08E47F23051884210D9022001F04F
:10393000A9FB0520E0740AE0E08E44F6206188428D
:1039400005D2E77403E00748C07A02F085FA322016
:1039500001F062FEAEE70000880D0020F4020020B6
:103960005C0300209C0000204FF4FA74204601F014
:1039700053FEFBE710B5502080F31188BFF34F8F43
:10398000BFF36F8F03F0AEFC18B104494FF08050C5
:103990000860002080F3118810BD000004ED00E0F5
:1039A00030B595B028216846FCF757FC14210AA8C9
:1039B000FCF753FC18210FA8FCF74FFC0121080469
:1039C000CDE900100024029402250491CDE90750AE
:1039D0004FF4C01009906846FEF7CCFB0F20CDE9EC
:1039E0000A056802CDE90C4002210AA80E94FEF7F0
:1039F00095FAA80311900F950FA8FEF719FA15B0C4
:103A000030BD00000D48016841F0010101604168CE
:103A10000B4A1140416001680A4A11400160016887
:103A200021F480210160416821F4FE0141604FF4DE
:103A30001F0181600449C003086070470010024004
:103A40000000FFF8FFFFF6FE08ED00E02DE9F04171
:103A500015460E460746002404E0315D384600F066
:103A600005F8641CAC42F8D3BDE8F0812DE9F041C3
:103A70000446808900250E460A2805D3A07A18B18D
:103A8000A57268A000F0A6FEA581A17A01274FF6D5
:103A9000FF70072928D2DFE801F0042955113F7F84
:103AA000A400012E20D1A4F81404012100F05AF939
:103AB000A4F8140484F8195403202BE0B4F8140477
:103AC000314600F04FF9A4F81404A07B46EA002028
:103AD000A073B4F81204401C80B2A4F812040128A8
:103AE00002D1A772A4F81254BDE8F081B4F814040E
:103AF000314600F037F9A4F81404207C46EA00208F
:103B00002082B4F81204401C80B2A4F812040228E7
:103B1000EAD10420A072E5E7B4F81404314604F2B7
:103B2000124400F01FF96080A07946EA0020A071DD
:103B30002088401C80B22080A4F212440128D3D1F6
:103B4000022047E094F8161446EA01218AB2A4F84C
:103B50001624B4F81214491C89B2A4F812140229CC
:103B6000C2D1B4F81414A4F81414914201D033A0B3
:103B700055E0218AA1B30522A272A4F81254A4F838
:103B80001404B1F5806FAFD934A000F023FE84F89F
:103B90001974A9E7A572A7E794F8190428B1B4F835
:103BA0001204401CA4F812040EE0B4F814043146C8
:103BB00000F0D8F8A4F81404B4F8120404F11202C6
:103BC000411CA4F812148654B4F81204218A8842C5
:103BD0008AD10620A072A4F81254A4F8165483E7E0
:103BE00018E094F8160446EA002081B2A4F81614EE
:103BF000B4F81204401C80B2A4F812040228C8D100
:103C0000B4F81404A4F8140494F81924002AC1D1B7
:103C1000884203D1204600F007F9BBE717A000F067
:103C2000D9FDB7E75B54465D205061727365722021
:103C300074696D656F75740A000000005B54465D21
:103C4000205278206865616420636B73756D206D08
:103C500069736D617463680A000000005B54465D1F
:103C6000205278207061796C6F616420746F6F20CE
:103C70006C6F6E673A2025640A0000005B54465D55
:103C800020426F647920636B73756D206D69736D6D
:103C9000617463680A00000010B5002200EB820323
:103CA000D3F8404903F5146344B1521CD2B2052A3B
:103CB000F4D307A000F08EFD002010BD196090F82D
:103CC0005619914202D8521C80F85629012010BD85
:103CD0005B54465D204661696C656420746F2061A9
:103CE00064642067656E65726963206C69737465CE
:103CF0006E65720A0000000070B5002404EB8405B4
:103D000000EB8505D5F82C6805F6280546B1641C3E
:103D1000E4B20A2CF2D30BA000F05CFD002070BDD1
:103D20006A600A782A70CA68EA60096929612B8189
:103D30006B8190F85419A14202D8641C80F8544950
:103D4000012070BD5B54465D204661696C6564204E
:103D5000746F20616464204944206C697374656EDB
:103D600065720A004140034AC9B232F8111081EA73
:103D700010207047CE7B00081421FCF76EBA0000BB
:103D80002DE9F04190460E4698F8011000274FF6B5
:103D9000FF7211B198F8005008E0417A01F07F05F8
:103DA000491C4172007A08B145F08005012088F86D
:103DB00000503070044601461046FFF7D3FFFA006A
:103DC00025FA02F13155641CFFF7CCFF7F1E7FB24C
:103DD000002FF4DA5FF00105B8F80810EA00D140CE
:103DE000C9B23155641CFFF7BDFF6D1E6DB2002DC9
:103DF000F2DA002598F80210EA00D1403155641C2F
:103E0000FFF7B0FF6D1E6DB2002DF3DA0121CA007D
:103E100020FA02F23255491E641C49B20029F6DA32
:103E20002046BDE8F0810000F0B585B00546684643
:103E30001421FCF712FAA87B00278DF800008DF8FA
:103E4000017095F818048DF8020005F11200019038
:103E5000288AADF808003E462DE000BF06EB86003C
:103E600005EB8004D4F82C0804F6280408B3207865
:103E70009DF8001088421CD1E068039020690490EE
:103E800062686946284690470399E1600499216178
:103E900078B102280AD0032806D1E76022463146CD
:103EA0002846276100F01FFF05B0F0BD6089208122
:103EB000FAE7761CF6B295F85409B042CED80397CB
:103EC000002404971AE000BF05EBC406D6F8F428D6
:103ED00006F50F6682B130789DF8021088420BD14A
:103EE00069462846904738B10328DDD1324621463D
:103EF000284600F017FFD7E7641CE4B295F855098F
:103F0000A042E1D8002414E005EB8406D6F840294D
:103F100006F514665AB169462846904738B1032819
:103F2000C2D132462146284600F0D3FEBCE7641CCD
:103F3000E4B295F85609A042E6D89DF8021002A016
:103F400000F048FCB0E700005B54465D20556E6809
:103F5000616E646C6564206D6573736167652C20A8
:103F6000747970652025640A000000002DE9F04195
:103F70000F4604000BD0D4E9005640F65811FCF768
:103F80006CF9C4E9005627720120BDE8F08102A057
:103F900000F020FC0020F8E75B54465D2054465FAB
:103FA000496E697453746174696328292066616974
:103FB0006C65642C207466206973206E756C6C2EA1
:103FC0000A00000001224A7000231A46AFF3008065
:103FD0002DE9F041044690F826080D4616461F4686
:103FE00018B117A000F0F6FB27E0012084F826089E
:103FF0002A4604F21A412046FFF7C2FEC4F81C0804
:1040000029892046C4F820182EB13B46324629465D
:10401000FFF772FE88B14FF6FF71A4F824182A89C1
:104020000AB1686830B12046696800F019F8204686
:1040300000F05EF80120BDE8F0810020FBE7000001
:104040005B54465D20544620616C72656164792042
:104050006C6F636B656420666F72207478210A0050
:104060002DE9F74F84B0044600F21A404FF0000BE0
:104070001546009037E000BFD4F81C18C1F58060E9
:10408000A84200D328468246009800260844059995
:10409000029001EB0B001FFA8AF904F62408374658
:1040A00001900CE00198815D0298C155B8F80000BC
:1040B0007F1CFFF757FE761CA8F80000B6B24E45ED
:1040C000F0D3D4F81C08A5EB0A053A18D344C4F879
:1040D0001C28B2F5806F06D12046009900F040F808
:1040E0000020C4F81C08002DC6D107B0BDE8F08F31
:1040F0002DE9F0410446D0F82008002604F21A45C4
:1041000020B3D4F81C28C2F58060022805D22946C5
:10411000204600F025F8C4F81C68D4F81C0804F602
:1041200024024719108800211080012013884FEACB
:10413000C00C23FA0CF37B54401E491C40B20028EB
:10414000F4DAD4F81C080844C4F81C0829462046B0
:10415000D4F81C2800F004F884F82668BDE8F08143
:104160000846114603F01CBB0148FEF7C7BC00001F
:104170000C1800200148FEF7C1BC00000817002001
:104180000148FEF7BBBC000048170020F0B50268EC
:104190001C4B1D4D1D4E1E4F1E4C4FF0804C984227
:1041A00009D0A04207D0604505D0A84203D0B04254
:1041B00001D0B84204D122F0700E4A6842EA0E02E1
:1041C000984209D0A04207D0604505D0A84203D04C
:1041D000B04201D0B84203D122F44075CA682A43E4
:1041E00022F080054A692A4302608A68C2620A682E
:1041F0008262984201D0A04201D109690163012184
:104200004161F0BD002C0140000400400008004066
:10421000000C00400034014010B50123046A8B40BB
:104220009C430462036A8A401343036210BD10B5C5
:10423000846842EA032224F47F440A4322438260D2
:1042400010BD826822F070020A4342F007018160CB
:1042500070470000F0B5026A22F001020262036AB0
:1042600042688469124E24F073050C682C4323F0D5
:1042700002058B682B430D4DA84201D0B04205D1F9
:1042800023F00807CB683B4323F00403A84201D086
:10429000B04205D14D6922F4407215438A692A4320
:1042A00042608461496841630362F0BD002C0140B3
:1042B00000340140F0B5026A22F010020262026A84
:1042C000436884690D6824F4E64444EA05248D6853
:1042D00022F0200242EA05120F4D104EA84201D0F2
:1042E000B04206D1CF6822F0800242EA071222F0E3
:1042F0004002A84201D0B04207D14D6923F4406387
:1043000043EA85038D6943EA850343608461496814
:1043100081630262F0BD0000002C014000340140C6
:10432000F0B5026A22F480720262026A4368C469CC
:1043300022F4007224F073050C68124E2C438D6831
:1043400042EA05220E4DA84201D0B04206D1CF6804
:1043500022F4006242EA072222F48062A84201D0DD
:10436000B04207D14D6923F4405343EA05138D69E8
:1043700043EA05134360C4614968C1630262F0BD4A
:10438000002C01400034014030B5026A22F4805212
:104390000262046A4268C3690D6823F4E64343EA93
:1043A00005238D6824F4005444EA0534084DA842DE
:1043B00002D0084DA84204D14D6922F4804242EA5D
:1043C00085124260C36149680164046230BD000027
:1043D000002C01400034014010B5036A046A24F047
:1043E00001040462846924F0F00444EA021423F016
:1043F0000A020A438461026210BD10B5036A23F009
:10440000100303628369046A23F4704343EA0232AF
:1044100024F0A00343EA01118261016210BD10B5CE
:10442000406A0021C185C184FEF769FD10BD70B5E9
:10443000446A2068406994F83910C0F3C010002520
:10444000212904D118B1E584204600F046F82068FF
:10445000406994F83A10C0F38010222904D118B1B1
:10446000E585204600F02BF8E06B40F01000E0639B
:104470002046FEF744FD70BD10B50146406A09684C
:104480000968890613D40021C1850168CA6822F42D
:104490008072CA6001684A6922F001024A610168BB
:1044A0004A6922F040024A61202180F83A10FEF762
:1044B00085FE10BD10B5406AFEF781FE10BD016893
:1044C000CA6822F49072CA6001684A6922F0010247
:1044D0004A61202180F83A1070470168CA6822F0CA
:1044E000C002CA60202180F83910704710B590F8DA
:1044F0003A10222901D0022010BD8168B1F5805FF9
:1045000011D00169002901681FD0496801F07F03BB
:10451000816A4A1C82620B70C18D491E0904090C14
:10452000C18518D02BE00269816A002A02685268AE
:1045300005D0D2B20A80816A491C8162ECE7C2F3DD
:1045400008020A80816A891CF7E74A68816A4B1C65
:1045500083620A70E0E70168CA6822F02002CA603C
:104560000168CA6822F48072CA6001684A6922F050
:1045700001024A61202180F83A10FEF71FFE002058
:1045800010BD00002DE9F041044600680169E268B1
:1045900021F44051114301612169A0680843616918
:1045A00008432168CA6841F20C639A430243CA6017
:1045B00020684169A26921F44071114341614C496D
:1045C00020686425322688423CD1FDF78DFD00EB42
:1045D000C00101EB001061688900B0FBF1F7FDF745
:1045E00083FD00EBC00101EB00106168B04689005B
:1045F000B0FBF1F0B0FBF5F06FF01801484307EBAA
:10460000800106EB0110B0FBF5F000F0F006FDF7BD
:104610006BFD00EBC00101EB001061688900B0FB8D
:10462000F1F0B0FBF5F006EB0016FDF75DFD00EBD9
:10463000C00101EB001061688900B0FBF1F7FDF7E4
:1046400053FD3BE0FDF740FD00EBC00101EB001026
:1046500061688900B0FBF1F7FDF736FD00EBC001A2
:1046600001EB00106168B0468900B0FBF1F0B0FBCF
:10467000F5F06FF01801484307EB800106EB0110DD
:10468000B0FBF5F000F0F006FDF71EFD00EBC001F9
:1046900001EB001061688900B0FBF1F0B0FBF5F0B0
:1046A00006EB0016FDF710FD00EBC00101EB00105A
:1046B00061688900B0FBF1F7FDF706FD00EBC00172
:1046C00001EB001061688900B0FBF1F0B0FBF5F080
:1046D0006FF01801484307EB800108EB0110B0FBB5
:1046E000F5F0216800F00F0030448860BDE8F081EB
:1046F0000038014090F83910212901D0022070477C
:104700008168B1F5805F016A0BD04A1C02620268C1
:1047100009785160C18C491E0904090CC1840ED06E
:1047200017E009880268C1F3080151600169002996
:10473000016A02D0491C0162ECE7891CFBE70168B1
:10474000CA6822F08002CA600068C16841F0400176
:10475000C160002070472DE9F041984617460E468B
:104760000446069D1DE0681C1BD02DB1FDF73AFAEA
:10477000A0EB0800A84214D92068C16821F4D071C8
:10478000C1602068416921F001014161202084F865
:10479000390084F83A00002084F838000320BDE88E
:1047A000F0812068006836EA000004D00020B8429A
:1047B000D9D00020F3E70120F9E7000010B5034845
:1047C000FEF79EFBBDE8104002F0DEB8881700201F
:1047D000FEE700000FB4054B10B503A9044A029888
:1047E00000F018F810BC5DF814FB0000214E000822
:1047F0008801002002E008C8121F08C1002AFAD16F
:1048000070477047002001E001C1121F002AFBD150
:10481000704700002DE9FF4F8DB00F46054600267A
:1048200006E025280BD0DDE90F1290476D1C761CA1
:1048300028780028F5D111B03046BDE8F08F00246B
:10484000A246A1460122EC4900E0044315F8013FCD
:10485000203B02FA03F00842F7D128782A2810D02A
:104860006FF02F022878A0F13001092914D80AEB43
:104870008A0102EB410144F0020400EB010A6D1CC5
:10488000F0E701CF5FEA000A03D544F40054CAF10F
:10489000000A44F002046D1C28782E2817D115F860
:1048A000010F44F004042A280ED06FF02F0228785C
:1048B000A0F1300109290AD809EB890102EB410175
:1048C00000EB01096D1CF2E757F8049B6D1C28787A
:1048D0006C280FD006DC4C2817D068280DD06A2829
:1048E00014D104E0742810D07A280FD10DE044F4DC
:1048F00000140AE044F4801401E044F440146978A0
:10490000814202D104F580146D1C6D1C2A786E2A38
:104910001FD00CDC632A31D004DC002A8BD0582A4B
:1049200011D1A3E0642A68D0692A0CD165E0732A0A
:104930002ED004DC6F2A73D0702A04D19BE0752A34
:104940006FD0782A6ED01046DDE90F129047761CA2
:1049500050E1C4F30250022806D0032809D00428ED
:1049600001CF09D0066045E101CFF117C0E9006130
:1049700040E101CF06803DE106703BE117F8040BF2
:104980008DF8000000208DF80100EB46012003E0C7
:1049900057F804BB4FF0FF3061074FF0000102D41D
:1049A0000DE008F10101884649450FDA8045F8DB42
:1049B0001BF808100029F4D108E008F1010188462D
:1049C0008142FADB1BF808100029F6D1DDE90F233C
:1049D000AAEB08008146214600F036F9304400EB8E
:1049E000080604E0DDE90F121BF8010B9047B8F14F
:1049F0000108F7D221464846F7E00A21C4F30253E2
:104A00004FF0000B0891022B04D001CFC117032BEC
:104A100009D00AE0FF1D27F00707F7E8020108E0C8
:104A200032E01FE020E000B2C117042B01D140B2F8
:104A3000C117031E71F1000307DA4FF0000CD0EB31
:104A40000C006CEB01012D2302E0230504D52B2380
:104A50008DF82430012303E0E30701D02023F7E79A
:104A6000984658E00A2110E010210EE010204FF087
:104A7000000B08900CE010214FF0000B44F00404F0
:104A80004FF00809089103E008214FF0000B08914E
:104A9000C4F30253022B04D001CF0021032B06D014
:104AA00006E0FF1D27F00707F7E8020103E080B2E8
:104AB000042B00D1C0B24FF0000823072BD5702A79
:104AC00007D0DDF820C08CF0100C5CEA0B0C05D090
:104AD0000EE040238DF82430012308E050EA010362
:104AE00006D030238DF824308DF8252002239846F7
:104AF000DDF820C08CF0080C5CEA0B0C0BD150EAFE
:104B0000010301D1630706D530238DF824304FF01F
:104B10000108A9F10109582A04D038A20B9208AA69
:104B20000A920BE03AA2F9E75B46089AFBF768FDA8
:104B30000B9B9B5C0A9A521E0A92137050EA010268
:104B4000F2D10A98ADEB000000F1200B600702D50E
:104B500024F4803401E04FF00109D94502DDA9EBCE
:104B60000B0000E0002000EB0B0141440890AAEB91
:104B7000010AE00306D4DDE90F232146504600F088
:104B800063F806444FF0000908E009A911F809008C
:104B9000DDE90F12904709F10109761CC145F4DBEC
:104BA000E0030CD5DDE90F232146504600F04CF818
:104BB000064404E0DDE90F1230209047761C089986
:104BC000481E08900029F5DC08E00A980A99007848
:104BD000491C0A91DDE90F129047761CBBF10001D8
:104BE000ABF1010BF1DC21465046DDE90F2300F06B
:104BF00019F806446D1C1BE60928010030313233D8
:104C00003435363738396162636465660000000008
:104C100030313233343536373839414243444546F2
:104C2000000000002DE9F041044600251E4617460D
:104C3000880404D405E039462020B0476D1C641E6A
:104C4000F9D52846BDE8F0812DE9F041044600255C
:104C50001E469046C80301D5302700E0202788046F
:104C600004D505E041463846B0476D1C641EF9D5B1
:104C70002846BDE8F0810000074A064B117843F84A
:104C80002100491CC8B210700A2801D900207047C1
:104C900001207047CC01002038000020062817D2E0
:104CA000DFE800F00306090C0F124FF416500DE078
:104CB0004FF461500AE04FF4964007E04FF416407D
:104CC00004E04FF4614001E04FF4E13002F02EBD0A
:104CD00070470023136090F85629521E8A4201D172
:104CE00080F856297047F0B50546506885B01446DF
:104CF0000E46002814D0E068002708B9216939B1B0
:104D0000039020690197049062686946284690479D
:104D1000676095F85429521EB24201D185F8542992
:104D200005B0F0BD0023536090F85529521E8A4209
:104D300001D180F85529704710B500210A46044B6F
:104D400001E05A54491C04898C42FADC10BD000071
:104D50007C030020044A012803D0022801D0032844
:104D600001D11070516070477400002010B50448E4
:104D7000FFF702F80248102181700121017010BD77
:104D8000600D00200A4A00EB400310B502EB43021D
:104D900000219181D181117401F0F8F805480122B8
:104DA00001790068BDE8104002EB510100F018B82D
:104DB0005C030020FC00002003480021016003493F
:104DC00081600221C16070474C03002000F8030895
:104DD000024B0A461946FBF727BA000000F8030801
:104DE000F8B50D460646FCF727FD00200090694601
:104DF0000948FCF783FC0024084F08E036F814202B
:104E000007EB440100230120FCF7D6FC641CAC42F4
:104E1000F4DBFCF7C7FCF8BD4C03002000F80308E6
:104E200013B50448FF23012269464068FEF7C8F91C
:104E300000981CBD3800002010B50446008801F021
:104E400030FD608801F000F8207901F067FD61799C
:104E5000044809B1012200E00022BDE8104004210D
:104E6000FCF7BABE0008014001494988018070473B
:104E7000380000202DE9FC41054600200C468DF845
:104E8000000006464A1E019020E000BF8DF8000099
:104E9000411C0AE055F821309DF8007055F8277044
:104EA000BB4201D28DF80010491CA142F2DB55F83B
:104EB000201001919DF8001055F8211045F82010A0
:104EC0009DF800300199401C45F823109042DDDB2D
:104ED000002708E055F82700FBF724FB3146FBF7D5
:104EE000C7F906467F1CA742F4DB2046FBF71AFBF6
:104EF00001463046FBF746FA0F4D06462888400823
:104F0000FBF715FB07460C463046FBF74AFB6FF0F4
:104F10000F02FBF7E7FA3A462346FBF771FA074A16
:104F2000074BFBF76DFAFBF74FFBC5E90260FBF798
:104F300024FB80B2BDE8FC8148000020D0BE4DDAE1
:104F4000AFFA3D4010B5012251030848FCF744FE7A
:104F5000074C012211032046FCF73EFE20460122A9
:104F6000BDE810401146FCF737BE000000100140BC
:104F70000008014010B500224FF400510848FCF72A
:104F80002BFE084C00224FF480512046FCF724FEF3
:104F900020460022BDE810400121FCF71DBE0000A4
:104FA000001001400008014010B500224FF43A7390
:104FB00011460448FCF70EF9BDE8104000210148F5
:104FC000FCF715B9041600202DE9F0410F4C617A69
:104FD000491CCFB26772FBF7A5FAE16CFBF748F901
:104FE00000260B4DE0641E2F0CD366720949FBF7B7
:104FF000C9F9FBF7C2FAA887012085F83A00E664F0
:10500000BDE8F08185F83A60FAE700009C000020D6
:10501000F40200200000F04170B50546174C00EB8B
:10502000450004EB4006284600F0B0FF1449280074
:105030004FF461734FF0640204D0012806D0022DB2
:1050400017D10BE0A4F85430012002E0A4F854304A
:105050000220A0740868C262CA600AE04FF4487077
:10506000A4F854000320A0740A684FF4FA70D062C8
:10507000C8603046BDE87040FFF7DEBEF402002095
:10508000081700200B4910B508760B4901280AD0F3
:1050900002280ED1FA20088000F0C2F8BDE81040C6
:1050A000702000F02BB94FF47A70088000F07AF885
:1050B000F4E710BDF40200204800002070B586B06F
:1050C00000201FA101900290D1E90001CDE9030168
:1050D0001D4E4FF48055002229463046FCF77CFDDA
:1050E0001A4CFF200090082301AA03A96068FDF76D
:1050F00011FB012229463046FCF76EFD019800BAEB
:1051000020F0FF019DF8070001439DF80800020A06
:1051100003069DF809001143050C43EA00401843BB
:1051200029439DF80A3011439DF80B2040EA0320E3
:1051300041EA13611043C4E9080106B070BD0000E4
:10514000B7FFFFFFFFFFFFFF000C01400000002042
:1051500010B5124C012202212046FCF73DFD0A2029
:10516000FCF7BAFA002202212046FCF735FD0A209E
:10517000FCF7B2FA012202212046FCF72DFD0A209D
:10518000FCF7AAFA002201212046FCF725FD0022A7
:10519000BDE8104020210248FCF71EBD000C014074
:1051A0000010014010B51749802000F0C9F81649D9
:1051B000812000F0C5F81549822000F0C1F814499B
:1051C000832000F0BDF812498420491C00F0B8F893
:1051D0001421852000F0B4F80520FCF77DFA152194
:1051E000862000F0ADF8FFF769FF0A4A0A4BC2E9D2
:1051F00006010A4A58405140084301D0002010BD22
:10520000012010BD1220240025004101110000C022
:1052100012000020000000201514131211251200A6
:1052200010B51249802000F08BF81149812000F060
:1052300087F81049822000F083F80F49832000F09E
:105240007FF80D498420491C00F07AF8142185204C
:1052500000F076F80520FCF73FFA1521862000F0D3
:105260006FF8BDE81040FFF729BF000012280400C6
:1052700025204221110000C0120000203EB514A2DA
:10528000154DD2E90012CDE901128DF804004FF45A
:105290008054002221462846FCF79EFC4FF6FF7002
:1052A0000E4A0090A2F10C00052301A94068FDF709
:1052B00031FA012221462846FCF78EFC0749D1F835
:1052C0000100097900BA20F0FF0008433EBD00004C
:1052D00000FFFFFFFF000000000C01400C00002059
:1052E00040F0B000FFF7CABF10B5B420FFF7C6FF0B
:1052F0000149000C886010BD00000020F8B50E4E7A
:105300008DF800004FF48055002229463046FCF706
:1053100063FC0A4CFF23012269466068FDF746F9E9
:105320002070012229463046FCF756FC207808B14F
:105330000020F8BD0120F8BD000C01400000002055
:105340007CB5174E8DF8040000200090080E8DF8F3
:105350000000080C8DF80100080A8DF802008DF895
:1053600003104FF48055002229463046FCF734FCE8
:105370000C4CFF23012201A96068FDF717F9FF23F8
:10538000042269466068FDF711F90122294630467A
:10539000FCF722FC207808B100207CBD01207CBDF8
:1053A000000C01400000002070B586B0064614468F
:1053B0000D466846FEF7E0FCF0208DF80200064836
:1053C0008DF800600195ADF8084069464068FEF729
:1053D000F9FD06B070BD00006C00002003480021FC
:1053E000417081700121C170704700009C00002055
:1053F0001CB5294D286C01F0D1FC284E284C294FB2
:1054000094F83E00A8B1002294F83F100A4221D03F
:105410006878A0B194F8560031680028A07CCDE9E6
:105420000001B4F84030B4F84220A18F03D01EA090
:1054300002E00122E8E726A002F04CFA28E0A87872
:1054400010B1A18F2CA01CE0E87808B3A08F00F069
:105450008FFD1DE0012800D00020084218D0687898
:1054600058B1A07C0090B4F84030B4F84220B4F9B0
:10547000381023A002F02EFA0AE0A87820B1A18FFC
:1054800027A002F027FA03E0E87808B102F02AF832
:10549000F88900F0C1F8B3E79C0000200401002067
:1054A000F4020020740D0020643A2025642C20733F
:1054B0003A2564207069645F6F6E3A202564206726
:1054C000733A256420206D643A25730D0A000000AC
:1054D000643A2025642C20733A2564207069645F47
:1054E0006F66663A2025642067733A256420206D34
:1054F000643A25730D0A0000256420636D0D0A00CF
:10550000643A2025642C20733A2564207069643A3B
:10551000202564202067656172733A25640D0A00B6
:105520006E756C6C0D0A000070B586B006461446A8
:105530000D466846FEF720FC10208DF80200064854
:105540008DF800600195ADF8084069464068FEF7A7
:1055500039FD06B070BD00006C000020FCF750FB68
:10556000FEF71EFAFDF758FFFDF722FFFEF74CF895
:10557000FEF794F8FDF7D6FEFEF700F9FDF7FEFF03
:10558000FEF720F8FDF7F6FEFEF7D6F8FFF70CFD64
:10559000FDF72CFF00F047F8FEE7014600208429C4
:1055A00000D0C81C7047000010B50020184B03E065
:1055B0004A68125C1A54401C0A898242F8DC154C75
:1055C000087820708A78A27021466360202A1CD057
:1055D00006DC012A0BD0022A0CD0032A15D10CE0DC
:1055E000212A12D0302A0BD0E02A0ED10BE0FFF78F
:1055F000B1FB0AE000F052F807E000F031F804E0F7
:1056000001F056F801E000F04DF9012010BD000056
:105610007C030020380D002010B500B9012001F0F6
:10562000B3FA002010BD10B501F084FB002010BDBE
:105630003EB504460D46B0F90800FFF7AEFF02A9DB
:10564000CDE90001208A2B4682B2D4E9001001F096
:105650000FFE012801D000203EBD02983EBD000093
:105660000D4A0828516015D2DFE800F00406080A48
:105670000C0E101240200CE041200AE0422008E00D
:10568000432006E0442004E0452002E0462000E0FC
:105690004720107070470000740000200D4A082851
:1056A000516015D2DFE800F00406080A0C0E101253
:1056B00010200CE011200AE0122008E0132006E080
:1056C000142004E0152002E0162000E017201070DE
:1056D000704700007400002010B541680A78002A65
:1056E0002ED00020224C012A11D0022A36D0032AC3
:1056F00026D1E07484F85600487870B3012802D0AF
:1057000002281DD10020BDE81040FFF785BC497874
:1057100071B1012915D0022919D0032910D1E074E3
:105720000220FFF779FC0220BDE8104000F02EBCFB
:105730000020FFF771FC002000F028FC0220E0743C
:1057400010BDE0740020FFF767FC0020ECE7E07478
:105750000120FFF761FC0120E6E707E0497811B17D
:105760000129EDD1012084F8560010BD0220CAE7BE
:10577000F40200202DE9F04F85B09946DDE90EA531
:10578000109CAB46630602D5DFF814C103E0DFF8D6
:1057900010C1ACF1110CE30601D524F00104E307BC
:1057A00001D0302300E0202300260493A3070BD56B
:1057B000002A02DA2D26524206E0630701D52B2685
:1057C00002E0230700D520260023EE4622B930222E
:1057D0008DF8002001230CE0B9F10A0F14D002F07B
:1057E0000F0812091CF808800EF803805B1C002AC1
:1057F000F2D1AB4200DD1D46AAEB050214F0110FF9
:105800004FF0200708D015E00A27B2FBF7F807FB96
:105810001828B2FBF7F2E5E73EB1002A05DD521E7B
:1058200003E0884200D20770401CB2F1000CA2F1E4
:105830000102F6DC26B1884200D20670401C521EDE
:10584000E40605D508E0884201D2049C0470401C9F
:10585000141EA2F10102F6DC30242E466D1E9E427B
:105860000ADD884200D20470401CF6E7884201D26B
:10587000E55C0570401C00E074461D1EA3F10103A9
:1058800007DDBBF1000FF1D103E0884200D20770C1
:10589000401C131EA2F10102F7DC05B0BDE8F08F39
:1058A000BD7B00081B4A072851601AD007DC072877
:1058B00010D2DFE800F0282224261C1E2000F12848
:1058C00023D008DC08280ED009280ED0102801D1DA
:1058D000702010707047F22819D0F328FAD1622096
:1058E000F7E75720F5E75820F3E75920F1E7542070
:1058F000EFE75520EDE75620EBE75120E9E752208E
:10590000E7E75320E5E75020E3E76020E1E7612087
:10591000DFE70000740000202DE9F041184C0F462D
:105920000546E6682068001D01F04EF838B9206889
:1059300090F82C1001208840216981432161681C66
:1059400007D137B12168BDE8F0410E48091D01F0CB
:1059500073B820683544B5424560216805D2A06B14
:10596000BDE8F041091D01F04FB8606B091D01F061
:105970004BF8A06A854200D2A562BDE8F081000024
:1059800028010020881900202DE9F041054601F08A
:105990005FF82D4CA068401CA06020682B4F10B110
:1059A000606938B32CE02560A068012828D1002662
:1059B00006EB860007EB800001F018F8761C0A2E33
:1059C000F6D32248C83001F011F82048DC3001F04D
:1059D0000DF81E48F03001F009F81D4801F006F8F6
:1059E0001B48143001F002F819483C386063143049
:1059F000A06305E02068E96AC06A884200D8256093
:105A0000606A401C6062E96A012022698840104394
:105A1000206101EB810007EB8000291D01F00CF8EB
:105A200001F036F8606900280CD02068E96AC06A85
:105A3000884207D207494FF080500860BFF34F8F6C
:105A4000BFF36F8FBDE8F08128010020701800209F
:105A50007419002004ED00E070B5114E114C17E0F0
:105A600001F0F4F93068B8B101F0DAFC00F0F0FFB1
:105A7000F068C568281D00F0A7FFA068401EA06060
:105A80006068401E606001F003F8284600F01FF8CF
:105A900060680028E4D170BD01F0C2FCF8E70000A6
:105AA000741900202801002030B4026C0B46002A33
:105AB0000BD0C1681144C1604468A14201D30168A0
:105AC000C16030BC1846FAF7AFBB30BC704710B5A8
:105AD0000446006B00F0F0FF2046BDE8104000F0E7
