:020000040800F2
:10000000502A0020DD01000843330008052F0008B6
:1000100041330008010900080943000800000000FE
:100020000000000000000000000000004501000882
:10003000470900080000000089010008CD340008CD
:10004000F7010008F7010008F7010008F7010008B0
:10005000F7010008F7010008F7010008F7010008A0
:10006000F7010008F7010008F7010008050900087A
:10007000F7010008F7010008F7010008110900085E
:10008000F7010008F7010008C5070008F70100089C
:10009000F7010008F7010008F7010008F701000860
:1000A000F7010008B93C0008F7010008F701000853
:1000B000F7010008F7010008F7010008F701000840
:1000C000F7010008F7010008F7010008F701000830
:1000D000F7010008F5420008F7010008F7010008E1
:1000E000F7010008F7010008F7010008F701000810
:1000F000F7010008F7010008F7010008F701000800
:10010000F7010008F7010008F7010008F7010008EF
:10011000F7010008F7010008F7010008F7010008DF
:10012000F7010008F7010008F7010008F7010008CF
:10013000DFF80CD000F024FB00480047614B0008BA
:10014000502A0020224B19680868B0E8F00F80F3AD
:100150000988BFF36F8F4FF0000080F311884EF0D5
:100160000D0E70470000000006480068006880F32C
:10017000088862B661B6BFF34F8FBFF36F8F00DFA1
:1001800000BF00BF08ED00E0EFF30980BFF36F8F01
:100190000F4B1A6820E9F00F106008B54FF05000BF
:1001A00080F31188BFF34F8FBFF36F8F05F0D8FB3B
:1001B0004FF0000080F31188BDE808401968086816
:1001C000B0E8F00F80F30988BFF36F8F704700BF6E
:1001D00060000020EFF3058070470000064880476C
:1001E00006480047FEE7FEE7FEE7FEE7FEE7FEE71C
:1001F000FEE7FEE7FEE7FEE75D3500083101000897
:10020000202A04DB203A21FA02F00021704721FA6B
:1002100002F3D040C2F120029140084319467047D2
:1002200040EA01039B0703D009E008C9121F08C078
:10023000042AFAD203E011F8013B00F8013B521EF8
:10024000F9D27047D2B201E000F8012B491EFBD26F
:1002500070470022F6E710B513460A4604461946D1
:10026000FFF7F0FF204610BDF0B480EA0102D40F82
:100270004200B2EB410F02D20246084611464A0044
:1002800042D0C30DDDB2C1F3C752AD1A202D35DA0D
:10029000C1F3160141F4000204B15242C5F1200637
:1002A00002FA06F12A411044B3EBD05F23D0C4B167
:1002B000012DA0EBC35009DCF0BC4FF0004202EA74
:1002C000C352DBB200F5000000F0CFB9400000F1EE
:1002D000807000EBC350A0F1807040EAD1704900FB
:1002E00009E0490841EAC071A0EBC35000F50000E5
:1002F000400800EBC350F0BC00F0AEB961420122EF
:1003000002EB4101001BF6E7F0BC704781F00041B1
:10031000AAE780F00040A7E780EA010210B502F0EA
:100320000043400022D04A001FD0010E01EB1261B1
:10033000C0F35600C2F3560240F4000042F400023B
:10034000A0FB022000047F39140400D0401C50EAB6
:10035000124001D44000491EC2B20C0604EBD0107A
:10036000401C4008802A02D003E0002010BD20F08D
:100370000100002900DA0020184310BD30B480EAE3
:10038000010202F0004530F0004221F0004013D09D
:1003900090B1C30DD40DC2F31601C0F31600E41AD8
:1003A00041F4000140F400027D34914201D3641C09
:1003B00000E04900002C02DA30BC002070474FF406
:1003C00000000023914201D3891A034340084FEAF9
:1003D0004101F7D151B1914202D14FF0004105E006
:1003E00002D24FF0010101E06FF0010103EBC450B4
:1003F000284430BC00F030B9420005D0C0F3C752E9
:100400005242914201DC0020704700EBC15070471E
:100410002DE9FE4F81EA030404F0004421F000417D
:1004200000944FF0000B23F0004350EA01045ED02B
:1004300052EA03045BD0C3F30A54C1F30A552C44B7
:10044000A4F2F3340194A0FB0254C1F3130141F46C
:100450008011C3F3130343F4801301FB024400FB38
:10046000034E840A970A44EA815447EA8357A4FB5F
:10047000076802958D0A05FB07854FEA932C04FB5C
:100480000C542705029D4FEA065847EA1637B5EB8C
:1004900008056EEB070C870E920E47EA811742EAB9
:1004A0008312A7FB0201B6EB0B0164EB00042B0DDA
:1004B00043EA0C335E1844EB1C50DA465146E7FB26
:1004C0000201C5F313044FEA0B3343EA14534FEA16
:1004D0000432019C43EA0603A4F10C040294009C3C
:1004E000CDE900B400F0FEF803B0BDE8F08F0020C5
:1004F0000146F9E770B521F0004303430CD0C1F386
:100500000A550024D5EB040564EB0403D617AD1A95
:10051000B34102DB0020014670BD201841EB0251BF
:1005200070BDC10F80EAE0700844CA07962300211D
:1005300000F09BB896230022114600F096B800F018
:10054000004220F00040C10DC0F3160040F400004E
:100550007F2901DA00207047962903DCC1F196015A
:10056000C84001E096398840002AF4D040427047E4
:1005700020F00040C10DC0F3160040F400007F29B8
:1005800001DA00207047962903DCC1F19601C840CA
:10059000704796398840704700F0004230F00040C4
:1005A0000AD0C10D01F56071C0F3160042EA015195
:1005B000C20840071143704700200146704701F010
:1005C000004330B421F0004150EA010206D00A0D88
:1005D000A2F56072C1F31301002A02DC30BC0020D6
:1005E0007047440F44EAC104C100E01830BC00EB7E
:1005F000C25000F031B82DE9F05F05460020924668
:100600009B4688460646814640241BE028464146D4
:1006100047462246FFF7F4FD53465A46C01A914119
:1006200010D311461846224600F0BCF82D1A67EB8D
:1006300001084F4622460120002100F0B3F817EBD5
:1006400000094E41201EA4F10104DFDC484631467A
:100650002A464346BDE8F09F0029A8BF7047401CCA
:10066000490008BF20F00100704710B4B0FA80FCC8
:1006700000FA0CF050EA010404BF10BC704749B105
:10068000CCF1200421FA04F411FA0CF118BF012175
:1006900021430843A3EB0C01CB1D4FEA00614FEA55
:1006A000102042BF002010BC704700EBC350104424
:1006B0000029A4BF10BC7047401C490008BF20F0AF
:1006C000010010BC704710B5141E73F1000408DA65
:1006D000401C41F1000192185B411A4301D120F006
:1006E000010010BD2DE9F04D92469B4611B1B1FAC3
:1006F00081F202E0B0FA80F22032904600F052F827
:1007000004460F4640EA0A0041EA0B0153465A46A6
:10071000084313D0114653EA010019D0C8F1400232
:100720005046FFF76DFD05460E4650465946424677
:1007300000F038F8084305D0012004E0204639468F
:10074000BDE8F08D0020054346EAE0762C433743B0
:100750000A986305E40AA0EB08000022FD0A44EAB7
:1007600047540A3002D500200146E9E70105101977
:100770006941DDE9084500196941BDE8F04DA2E78E
:10078000064C074D06E0E06840F0010394E80700DE
:1007900098471034AC42F6D3FFF7CEFC74640008DF
:1007A00094640008202A04DB203A00FA02F10020B9
:1007B00070479140C2F1200320FA03F3194390409F
:1007C00070470000014800F0B5BA0000C4010020E5
:1007D00070B5044600688168C943C9071CD18168A7
:1007E00021F00101816001F0B1F805460FE000BF82
:1007F00001F0ACF8401B022809D9A06A40F01000B3
:10080000A062E06A40F00100E062012070BD206853
:100810008068C043C007EBD0002070BD10B5014612
:10082000406A826A12F0500F05D0006A026BBDE880
:10083000104008461047816A41F4007181620168E6
:100840008968C1F3424107290CD1C16851B9816A55
:1008500021F480718162816AC90403D4816A41F004
:100860000101816200F05AFA10BD10B5406A816A38
:1008700041F040018162C16A41F00401C16200F0AF
:1008800058FA10BD10B5406A00F052FA10BD0000D1
:10089000F8B500260446009600688168C943C90778
:1008A00028D0816841F00101816013481349006834
:1008B000B0FBF1F000E0401E00900028FBD101F0F9
:1008C00045F8054611E000BF01F040F8401B022842
:1008D0000BD9A06A40F01000A062E06A40F001006D
:1008E000E06284F824600120F8BD20688068C0437D
:1008F000C007E9D10020F8BD5C00002040420F0095
:10090000FEE70000014800F0C5BC0000F401002033
:10091000014800F0BFBC0000A803002030B590F8EB
:1009200040500124AC40C56B6C6004686360436850
:10093000102B036803D099600068C26030BD9A60D4
:100940000068C16030BD7047704700000649002054
:10095000C8610648016941F004010161016941F083
:100960004001016170470000300400200020024077
:10097000064A0021D16106490A6942F002020A6171
:100980004861086940F04000086170473004002069
:1009900000200240044B0022DA61044A136943F04C
:1009A00001031361018070473004002000200240E1
:1009B00014480022C168CB06134904D5CA6942F025
:1009C0000202CA611022C3685B0705D5CB6943F0F8
:1009D0000103CB6142F00402C369DB0707D0CB6996
:1009E00043F00403CB61C16921F00101C161A2F5AB
:1009F0008071013901D0C2607047C16921F00101E5
:100A0000C1617047002002403004002070B50546E7
:100A100000F09CFF0646114C09E0681C07D025B188
:100A200000F094FF801BA84201D9032070BDE0684C
:100A3000C007F2D1E068800601D52020E060E068C0
:100A4000C00605D4E069C00702D1E068400703D5BD
:100A5000FFF7AEFF012070BD002070BD00200240F6
:100A600010B5124C01220221204600F06AFF0A2034
:100A700000F0AAFD00220221204600F062FF0A20B9
:100A800000F0A2FD01220221204600F05AFF0A20B8
:100A900000F09AFD01221146204600F052FF00228C
:100AA000BDE810402021024800F04BBF000C01407F
:100AB0000010014004484068406B0068406880B204
:100AC000C0F1320080B270472C00002004F0E4FB3B
:100AD0001C4D01201C4CE87000261C4F0EE000BF8E
:100AE00004F0BEFC608D401C80B26085022801D3FA
:100AF00004F08EFB4FF4FA7004F0F6FB1021384638
:100B000000F01AFF0128EBD0668504F07DFC104947
:100B100002280870F2D104F07BFB608404F060FCD2
:100B2000A87840B108480221203005F05DFAAE7087
:100B3000002004F0B5FEE8780028DFD0012004F0A2
:100B400049F8DBE7C80000207801002000100140D0
:100B5000D8000020F8B500250446009590F8240040
:100B6000012808D0012084F824002046FFF730FE39
:100B7000060002D04BE00220F8BDA06A20F48850A5
:100B800040F00200A062022000F09CFF22490968A8
:100B9000B1FBF0F0400000E0401E00900028FBD1C7
:100BA0002046FFF775FE2068816841F008018160EA
:100BB00000F0CCFE074604E000F0C8FEC01B0A2887
:100BC00011D8206880680007F6D42068816841F059
:100BD0000401816000F0BAFE07460EE000F0B6FEA8
:100BE000C01B0A2809D9A06A20F0020040F01000BA
:100BF000A06284F824500120F8BD20688068400776
:100C0000ECD4A06A20F0020040F00100A06284F859
:100C100024503046F8BD00005C0000207047000002
:100C2000F8B50024009490F824202546012A12D01B
:100C3000012280F824204A681F23072A0DD2066863
:100C4000776B521E02EB820293409F430B689340E6
:100C50001F43776319E00220F8BD06680D2A0AD207
:100C6000376BD21F02EB820293409F430B68934085
:100C70001F43376309E0F76A0D3A02EB82029340A3
:100C80009F430B6893401F43F7620A680723066877
:100C90000A2A0AD3F7680A3A02EB420293409F43BA
:100CA0008B6893401F43F76008E0376902EB42020C
:100CB00093409F438B6893401F4337610A68102A13
:100CC00001D0112A20D1124B02689A4217D19368A1
:100CD0001B0219D4936843F4000393600968102938
:100CE00012D10C490C4A0968B1FBF2F101EB810108
:100CF000490000E0491E00910029FBD104E0816A0F
:100D000041F020018162012480F824502046F8BD82
:100D1000002401405C00002040420F0010B5034C4D
:100D2000A06800F0E1F90120207010BD180000203B
:100D30007047704710B5044600684168890626D59B
:100D40000168890723D5A16AC90603D4A16A41F4C1
:100D50000071A1628168C1F34241072910D1E168A5
:100D600071B9416821F020014160A06A20F48070CF
:100D7000A062A06AC00403D4A06A40F00100A0628F
:100D80002046FFF7CBFF21686FF012000860206853
:100D9000416809062ED5016849072BD5A16AC90605
:100DA00003D4A16A41F40051A1628168C1F3023108
:100DB000072909D04168490515D48168C1F342412A
:100DC000072910D1E16871B9416821F080014160C3
:100DD000A06A20F48050A062A06AC00503D4A06A73
:100DE00040F00100A0622046FFF718FF21686FF075
:100DF0000C0008602068416849060DD50068C007EE
:100E00000AD0A06A40F48030A062204600F096F834
:100E100021686FF00100086010BD00002DE9F0416D
:100E200004004FF000057FD0A06A002628B9E662D2
:100E300084F82460204600F083F82046FFF7C8FCC1
:100E4000A16AC90600D420B1A06A40F01000A062D7
:100E50006AE0A16A21F4885141F00201A16233499C
:100E600023688B42E16904D1B1F5402F01D14FF4E1
:100E70000021E7684FF4807C41EA470261680A4339
:100E8000A168614508D0012906D00021D4F814E0FA
:100E9000BEF1010F02D00AE06146F7E7C7B1A76AC9
:100EA00047F02007A762E76A47F00107E7625F683B
:100EB00027F469470F435F60236899681C4F3940E6
:100EC00011439960A16861450BD0012909D00CE05C
:100ED000DFF860E0A7690EEB47370F4347F4006186
:100EE000E5E7218A0D05A5F580152168CB6A23F475
:100EF00070032B43CB62216889680F4B19409142E4
:100F000008D1E662A16A21F0020141F00101A1626B
:100F1000BDE8F081A06A20F0020040F01000A0625D
:100F2000E06A40F00100E0620120F1E7003C01408E
:100F3000FDF7E1FF00E0FFFFFE0E1FFF704700001E
:100F400070B586B00025064600950195029503957B
:100F500000681D49884235D11C49886940F40070F9
:100F60008861886900F400700490886940F010007E
:100F700088618869694600F01000049001200090A3
:100F800003200190124800F0E3FB134C1148C4E920
:100F900000058020C4E90250400020618000C4E9BF
:100FA00005052046E56100F099FA08B1FFF7CCFC91
:100FB0003462002205211220666200F051FD1220E9
:100FC00000F042FD06B070BD002401400010024058
:100FD0000010014008000240F40100202DE9F04714
:100FE000894604463B4900683B4F0E1D90468842A7
:100FF00001D0B84207D1306810F4702F03D001251A
:101000002846BDE8F08794F8240001280CD0012080
:1010100084F824002046FFF73BFC05004FF0000059
:1010200004D084F82400EBE70220EAE7A16A40F646
:101030000162914341F48071A1622168B94218D1E3
:10104000326812F4702F14D0A16A41F48011A162A9
:101050003168490505D5A16A21F4005141F4805158
:10106000A162A16AC9040AD5E16A21F00601E16220
:1010700006E0A26A22F48012A2624968E9E7E0620F
:1010800084F82400216A15488862216A1448C862DD
:10109000216A1448086321686FF002000860206824
:1010A000816841F480718160216843464A464C3131
:1010B000206A00F051FA20688168C1F34241072993
:1010C000816803D041F48011816099E741F4A00167
:1010D000FAE7000000240140002801401D08000834
:1010E000850800086B08000810B5044690F8240035
:1010F000012807D0012084F824002046FFF768FB70
:1011000010B10EE0022010BD2068816821F48071CA
:101110008160206A00F00EF8A16A30B141F0400110
:10112000A162002184F8241010BD21F4885141F0FF
:101130000101F5E701680A6822F00E020A60016801
:101140000A6822F001020A6090F84020C36B012176
:1011500001FA02F25A6080F82110002180F8201074
:10116000084670472DE9F05F90F82110002402290D
:1011700003D004218163012485E001680A6822F01C
:101180000E020A6001680A6822F001020A603F4EFE
:101190003E4FB215DFF8F4C0DFF8F090DFF8ECA0B6
:1011A000DFF8E8B0DFF8E4E00168783F13011502EA
:1011B000ACF1640CA9F15009AAF13C0AABF1280B7F
:1011C000AEF1140E4FF48018B14227D9B9420ED0B7
:1011D000614512D049451DD0514518D0594518D008
:1011E000714501D1424615E0294EB14201D101229B
:1011F00010E0274E1436B14201D110220AE0244EED
:101200002836B14206D0224A3C32914201D11A46D8
:1012100000E02A461E49091F0A602BE0B94213D09C
:10122000614517D0494522D051451DD059451DD0A3
:10123000714501D142461AE0B14202D14FF08072AD
:1012400015E0134EB14201D1012210E0104E1436C8
:10125000B14201D110220AE00D4E2836B14206D02B
:101260000B4A3C32914201D11A4600E02A46074916
:1012700080394A60012180F82110002180F8201077
:10128000416B01B188472046BDE8F09F80000240D5
:10129000080402402DE9F05FC16B0A6801680B6821
:1012A000046C4FF0040808FA04F8844D844E854F0E
:1012B000DFF814C2DFF81492DFF814A2DFF814B2DA
:1012C000DFF814E218EA020F65D05FEA437862D5CE
:1012D0000A68920603D40A6822F004020A60DFF862
:1012E000F0814FF48062016808F1140813011402C0
:1012F000414524D9A9420DD0B1420FD0B9421AD0EC
:10130000614515D0494515D0514501D1120312E070
:10131000594501D104220EE0714501D140220AE075
:101320006D4D1435A94206D06B4A2832914201D145
:101330001A4600E022466749091F0A6029E0A942CF
:1013400013D0B14215D0B94220D061451BD04945D8
:101350001BD0514502D14FF4800217E0414502D124
:101360004FF0806212E0594501D104220EE0714530
:1013700001D140220AE0584D1435A94206D0564A00
:101380002832914201D11A4600E022464B490839E1
:101390004A60C16A71E04FF0020808FA04F818EADE
:1013A000020F70D05FEA83786DD50A68920606D482
:1013B0000A6822F00A020A60012180F82110DFF891
:1013C00010814FF40072016808F11408130114022F
:1013D000414524D9A9420DD0B1420FD0B9421AD00B
:1013E000614515D0494515D0514501D1120312E090
:1013F000594501D102220EE0714501D120220AE0B7
:10140000354D1435A94206D0334A2832914201D1D4
:101410001A4600E022462F49091F0A6029E0A94226
:1014200013D0B14215D0B94220D061451BD04945F7
:101430001BD0514502D14FF4001217E0414502D1B3
:101440004FF0007212E0594501D102220EE07145C1
:1014500001D120220AE0204D1435A94206D01E4AAF
:101460002832914201D11A4600E022461349083938
:101470004A60002180F82010816A00291CD0BDE854
:10148000F05F0847FFE70825A540154214D01A076A
:1014900012D50A6822F00E020A6090F84020C36B51
:1014A000012101FA02F25A60816380F821100021C3
:1014B00080F82010016BE0E7BDE8F09F08000240D3
:1014C0001C0002403000024044000240580002402C
:1014D0006C000240080402401C04024030B560B1B8
:1014E0001A4B026814219A4209D2194B1344B3FBD8
:1014F000F1F18900016417490AE0012030BD134B66
:101500005B421344B3FBF1F1890001640F490839D0
:10151000C163022180F82110136843F6F0718B43F8
:10152000F0E901142143D0E902452C432143046929
:1015300021434469214384692143194311600021F7
:101540004163012242770177084630BD080402401A
:10155000F8FFFDBF0000024070B5044690F820007F
:10156000002501280CD0012084F8200094F8216087
:101570000020012E06D084F820000225284670BDE8
:10158000022070BD022684F82160A06320680668EE
:1015900026F0010606602046FFF7C0F9E06A002841
:1015A0002068016802D041F00E0106E021F004013C
:1015B00001602068016841F00A010160206801684B
:1015C00041F001010160D9E770B5044600F0BEF9B1
:1015D0000546601C02D004480078044400F0B6F9C7
:1015E000401BA042FAD370BD500000202DE9F04707
:1015F000054626480F460126017E01290FD001210C
:10160000814601762868DFF888804CF25034022841
:1016100008D0A2462046FFF7F9F9A8B131E0022030
:10162000BDE8F0872046FFF7F1F908BB0120FFF77E
:101630008DF92046FFF7EAF9D8F81010064621F098
:101640000401C8F810101CE04FF0FF303860AC689F
:1016500011E02046FFF78CF95046FFF7D7F9D8F88C
:101660001010060021F00201C8F8101001D03C60F3
:1016700007E004F50064D5E9020100EBC120A042B7
:10168000E7D8002189F818103046C9E73004002057
:10169000002002400348016941F0800101610020FF
:1016A00070470000002002402DE9F05F07461C480B
:1016B00088460024017E15461E46012909D00121D5
:1016C000814601764CF2503A5046FFF79FF918B127
:1016D00022E00220BDE8F09F012F02D0022F00D0AF
:1016E0000427D346DFF83CA0220128463146FEF706
:1016F00087FD81B208EB4400FFF74CF95846FFF72D
:1017000085F9DAF8102022F00102CAF8102018B981
:10171000641CE4B2BC42E7D3002289F81820D9E760
:101720003004002000200240064900200A69120609
:1017300007D5054A4A60054A4A600969090600D585
:10174000012070470020024023016745AB89EFCD9F
:101750002DE9F84FDFF8B8A100220AF1040B144676
:1017600001274FF00F090BF1040E00BF0B6807FAB9
:1017700004F52B40AB4274D1DFF898C14E68A6EB5C
:101780000C0866452BD00DDC032E34D005DC36B3B7
:10179000012E19D0022E2FD11BE0112E16D0122EA1
:1017A0002AD119E0B8F5881F19D006DCB8F5803FBA
:1017B00015D0B8F5801F1FD111E0B8F5001F0ED06D
:1017C000B8F5041F18D10AE0CA6815E0CA68121DEE
:1017D00012E0CA6808320FE0CA680C320CE08A686E
:1017E0002AB1012A4FF0080203D0456104E0042227
:1017F00002E0056100E00022FF2B01D8064601E06F
:1018000000F104064FEA840501D9A5F12005D6F8B8
:1018100000C009FA05F82CEA080C02FA05F54CEAB2
:10182000050CC6F800C04D68ED006AD53A4DAE69AA
:1018300046F00106AE61AD6924F0030605F001052E
:101840000095364D06EB050CDCF80850A6074FEA6C
:10185000167809FA08F6B543314EB04202D1002697
:101860001AE04EE02F4EB04201D1012614E02E4E78
:10187000B04201D102260FE02C4EB04201D1032626
:101880000AE02B4EB04201D1042605E0294EB042B9
:1018900001D1052600E0062606FA08F62E43CCF80C
:1018A00008604D68DAF80060ED03554601D51E4327
:1018B00000E09E432E604D68AD0305D5DBF8006067
:1018C0001E43CBF8006004E0DBF800509D43CBF8EA
:1018D00000504D68DEF80060ED02754601D51E43EC
:1018E00000E09E432E604D68AD0205D5084D0C35D5
:1018F0002E681E432E6004E0054E0C3635689D436D
:101900003560641C102CFFF431AFBDE8F88F000087
:1019100000040140000011100010024000000140CE
:1019200000080140000C014000100140001401407B
:1019300000180140001C01408068084000D00120D0
:1019400070470AB1016170470904FBE701488068EC
:10195000704700005000002002488168027811445E
:101960008160704750000020074810B5016841F0C1
:1019700010010160032000F093F8002000F006F849
:1019800000F03EF8002010BD0020024000B50146E6
:1019900087B00022192000F063F8192000F054F8F5
:1019A0001348816941F400618161806905A900F4EF
:1019B00000600690684600F01BFA00F049FA0D49F5
:1019C0000D4AB0FBF1F10D48491E0260416040F242
:1019D000E7320021C0E90321816000F065FE10B10B
:1019E000012007B000BD054800F098FEF9E70000AF
:1019F0000010024040420F00002C0140EC03002088
:101A00000F4808B5816941F001018161816901F0E8
:101A100001010091C16941F08051C161C06900229A
:101A200000F0805000900F21901E00F019F805483A
:101A3000416821F0E06141F00071416008BD0000A3
:101A4000001002400000014000F01F0201219140FF
:101A50004009800000F1E020C0F80011704700004C
:101A6000F0B40E4B1B680C46C3F30223C3F1070509
:101A7000042D00D90425191D072901D2002300E0F7
:101A8000DB1E012606FA05F1491E214099409E40C1
:101A9000761E16403143F0BC01F054BC0CED00E062
:101AA000064900F0070208684FF6FF03184040EAB5
:101AB0000220034A10430860704700000CED00E06C
:101AC0000000FA0510B52CA401461DCC86B08DE8A7
:101AD0001D002DA02D4C00680490002004292FD05B
:101AE0000BDC01292FD0022928D100F0B1F961685F
:101AF000C1F38131491C49001EE0082920D010297A
:101B00001CD161682268D20118D5C1F38342C90390
:101B10001DF8020009D5616804AAC1F34041515C77
:101B20001B4AB2FBF1F1484301E01A49484361689E
:101B3000490203D440000321B0FBF1F006B010BD10
:101B400000F096F9FAE7226AC2F30121012903D1D4
:101B5000920701D5C803F1E7022905D1626A92070D
:101B600002D549F64040E9E70329E7D12168890316
:101B7000E4D54FF22440E1E7020304050607080913
:101B80000A0B0C0D0E0F1010010200000010024095
:101B900000127A0000093D002DE9F843054600785F
:101BA000354CC00754D0E0690026C00008D4E06975
:101BB00040F08050E061E069012600F08050009024
:101BC0002E480168C90512D40168804641F480712D
:101BD0000160FFF7BBFE074605E000BFFFF7B6FE5A
:101BE000C01B642823D8D8F80000C005F6D5206AA9
:101BF00010F4407021D0A98801F4407181421CD0BA
:101C0000206A1F49012220F440700A6000220A6005
:101C10002062C00711D0FFF799FE074641F28838CD
:101C200008E000BFFFF792FEC11B414502D9032027
:101C3000BDE8F883206A8007F4D5206A696820F43B
:101C40004070084320621EB1E06920F08050E061DE
:101C50002878800705D56068A96820F440400843CB
:101C600060602878C00605D56068696920F4800046
:101C7000084360600020DBE7001002400070004075
:101C8000400442422DE9F047DFF8548105460E46F4
:101C9000D8F8000000F00700B0420CD2D8F80010CD
:101CA00021F007013143C8F80010D8F8000000F017
:101CB0000700B0426FD128684A4C810712D540070F
:101CC00003D5606840F4E06060602878000703D5C1
:101CD000606840F4605060606068A96820F0F000BF
:101CE000084360602878C00744D06868012816D08F
:101CF0002168022816D0890700294CDA616821F092
:101D0000030101436160FFF721FE6968074641F264
:101D1000883001290ED00229814618D026E021689A
:101D20008903E9E78901E7E7FFF710FEC11B494591
:101D300001D918E081466068C0F381000128F3D121
:101D400018E000BFFFF702FEC11B49450BD86068D1
:101D5000C0F381000228F5D10CE000BFFFF7F6FDCB
:101D6000C11B494502D90320BDE8F087606810F027
:101D70000C0FF3D1D8F80010404601F00701B14232
:101D80000BD9016821F0070131430160006800F0C0
:101D90000700B04201D00120E6E72878400705D5CA
:101DA0006068E96820F4E060084360602878000714
:101DB00006D56068296920F4605040EAC10060607F
:101DC00000F056F86168084AC1F30311515CC8403D
:101DD000064908600020FFF7D9FD0020C4E7000095
:101DE0000020024000100240506200085C00002009
:101DF0000F2202600C4A536803F0030343605368E8
:101E000003F0F0038360536803F4E063C360526837
:101E10004FF4E06303EAD20202610448006800F074
:101E200007000860704700000010024000200240D8
:101E30000448054900684968044AC1F30221515C1D
:101E4000C84070475C00002000100240606200083B
:101E50000448054900684968044AC1F3C221515C3D
:101E6000C84070475C00002000100240606200081B
:101E700012A185B00FC98DE80F0014A0144A0068A4
:101E800004905168134801F00C03042B10D0082B68
:101E90000ED1C1F38343C9031DF803000AD551686D
:101EA00004AAC1F34041515C0A4A5043B0FBF1F02F
:101EB00005B0704708494843FAE7000002030405EB
:101EC000060708090A0B0C0D0E0F10100102000086
:101ED0000010024000127A0000093D002DE9F84F81
:101EE00004460078B94DC00748D06868C0F3810047
:101EF000012807D06868C0F38100022809D168680A
:101F0000C00306D52868800338D5606800286FD0E4
:101F100034E06068B0F5803F0BD010B1B0F5A02F71
:101F200011D0286820F480302860286820F48020B0
:101F300002E0286840F480302860606888B1FFF7CC
:101F400005FD064609E0286840F480202860F0E797
:101F5000FFF7FCFC801B642875D828688003F7D540
:101F60000CE0FFF7F3FC064605E000BFFFF7EEFCD0
:101F7000801B6428F0D828688003F7D42078944E1A
:101F800080074FF001094FF000083BD5686810F05A
:101F90000C0F07D06868C0F38100022809D1686877
:101FA000C00306D42868800714D5206901281FD1F2
:101FB00010E02069B0B1C6F80090FFF7C7FC0746F3
:101FC00005E000BFFFF7C2FCC01B0228C4D8286888
:101FD0008007F7D52868616920F0F80040EAC10061
:101FE00028600FE0C6F80080FFF7B0FC074606E067
:101FF000E9E000BFFFF7AAFCC01B022823D828682D
:102000008007F7D4207800072CD57248A169D9B190
:10201000C0F80090FFF79AFC074604E0FFF796FC33
:10202000C01B02280FD8686A8007F7D56A484FF4AA
:10203000FA510068B0FBF1F0009000BF0098411E1B
:102040000091FAD20EE080E0C0F80080FFF77EFC3D
:10205000074604E0FFF77AFCC01B022875D8686ABF
:102060008007F7D42078400760D5E8690027C000D2
:1020700008D4E86940F08050E861E869012700F081
:102080008050009055480168C90513D40168834603
:1020900041F480710160FFF759FC824606E000BF01
:1020A000FFF754FCA0EB0A0064284ED8DBF80000D0
:1020B000C005F5D5E06801280AD008B1052813D07D
:1020C000286A20F001002862286A20F0040002E05B
:1020D000286A40F001002862E06841F2883B98B12C
:1020E000FFF734FC82460BE0286A40F004002862C7
:1020F000EEE700BFFFF72AFCA0EB0A0159455AD8CA
:10210000286A8007F6D50CE0FFF720FC824605E040
:10211000FFF71CFCA0EB0A0159454CD8286A800740
:10212000F6D41FB1E86920F08050E861E06988B317
:102130006968C1F38101022945D00228C6F8608090
:1021400004D0FFF703FC044638E034E0FFF7FEFB61
:10215000074604E0FFF7FAFBC01B02282BD82868CB
:102160008001F7D4206AB0F5803F05D16868A16886
:1021700020F4003008436860D4E908010843696826
:1021800021F4741108436860C6F86090FFF7DEFB25
:10219000044606E015E000BFFFF7D8FB001B02284D
:1021A00009D828688001F7D50BE000BFFFF7CEFB08
:1021B000001B022802D90320BDE8F88F286880019F
:1021C000F4D40020F8E70120F6E7000000100240F8
:1021D00000004242800442425C0000200070004047
:1021E00070B5040005D00025A56294F8510010B127
:1021F00004E0012070BD204600F034F8022084F88D
:1022000051002068016821F040010160D4E901011A
:102210000843D4E903121143084361690843218B41
:1022200001F400710843E1690843216A0843A16A87
:10223000084321680860A069042101EA1040616A2E
:102240000843216848602168E06A08612068C16924
:1022500021F40061C1616565012084F8510000200E
:1022600070BD000030B585B0002400940194029444
:102270000394234D0368234802210322AB4216D165
:10228000836943F480538361836903F48053049327
:10229000836943F0040383618069039200F00400C2
:1022A0000490A020CDE900016946174823E0174DAE
:1022B000AB4222D1C36943F48043C361C36903F4D1
:1022C00080430493836943F0080383618069104D60
:1022D00000F0080004904FF42040CDE90001039283
:1022E00069462846FFF734FA4FF48040CDE90004F0
:1022F000694628460294FFF72BFA05B030BD00006E
:102300000030014000100240000801400038004049
:10231000000C01402DE9F84F044690F850000026CB
:10232000994617460D4601280DD04FF0010B84F851
:1023300050B0FFF70BFB804694F85100B2460128DD
:1023400004D0022694E00220BDE8F88F002D7BD057
:10235000002F79D0032084F85100C4F854A02563DD
:10236000A786E786C4F838A0A4F83CA0A4F83EA04D
:10237000C4F844A0C4F840A0A068B0F5004F04D150
:102380002068016841F480410160206801684906C5
:1023900003D4016841F040010160E068B0F5006FCE
:1023A000606804D030B3E08E012823D03EE010B145
:1023B000E08E01281AD135F8021B206805E020685C
:1023C0008168890706D535F8021BC160E08E401E82
:1023D000E0860BE0B9F1000F34D0B9F1FF3F05D032
:1023E000FFF7B4FAA0EB080149452BD2E08E002894
:1023F000E5D11EE0216815F8010B087306E020689E
:102400008168890706D515F8011B0173E08E401E0F
:10241000E0860BE0B9F1000F14D0B9F1FF3F05D011
:10242000FFF794FAA0EB080149450BD2E08E002893
:10243000E5D14B46012202212046CDF8008000F074
:10244000A1FF10B1032613E011E0424649462046A1
:1024500000F088FF18B101262020606508E0A06820
:1024600018B92068C16880680090606D00B10126CD
:1024700084F851B084F850A0304665E72DE9F84F54
:10248000044690F8500000260A9F9A4693460D464F
:102490004FF0010801280ED0012084F85000FFF70A
:1024A00055FA814694F85100616801280CD0B1F5C5
:1024B000827F07D102E00220BDE8F88FA16809B948
:1024C000042801D00226BDE055B1BBF1000F07D0B2
:1024D000BAF1000F04D094F85100012802D004E0B2
:1024E0000126AFE0052084F8510000206065C4F8A3
:1024F00038B0A4F83EA0A4F83CA02563A4F836A008
:10250000A4F834A02064606420680168490603D4FC
:10251000016841F040010160E068B0F5006F60685B
:1025200004D0E8B3E08E01283BD06AE010B1E08E21
:1025300001282ED1216835F8020BC860E08E401EBC
:10254000E08626E0B8F1000F0DD0E08E58B120688B
:102550008168890707D535F8021BC160E08E401EEF
:10256000E0864FF00008E08F58B120688168C90705
:1025700007D0C0682BF8020BE08F401EE0874FF0B9
:102580000108781C05D0FFF7E1F9A0EB0900B8427B
:1025900046D2E08E0028D5D1E08F0028D2D136E097
:1025A000FFE7216815F8010B0873E08E401EE086F6
:1025B00027E000BFB8F1000F0DD0E08E58B12068C1
:1025C0008168890707D515F8011B0173E08E401E4D
:1025D000E0864FF00008E08F58B120688168C90795
:1025E00007D0C0680BF8010BE08F401EE0874FF06A
:1025F0000108781C05D0FFF7A9F9A0EB0900B84243
:102600000ED2E08E0028D5D1E08F0028D2D13B46F3
:10261000012202212046CDF8009000F0B3FE08B15F
:1026200003260FE04A463946204600F09BFE18B1CB
:1026300001262020606505E0A06818B92068C168FF
:1026400080680090012084F85100002084F8500038
:10265000304631E77047704730B590F83C20012A8A
:1026600020D0012280F83C20022380F83D3003680E
:102670005C6824F070045C6003685C680D682C433F
:102680005C6003689C6824F080049C6003689C681C
:1026900049680C439C6080F83D20002180F83C1084
:1026A000084630BD022030BD10B5040003D094F8B8
:1026B0003D0010B107E0012010BD002084F83C006F
:1026C000204600F00DF8022084F83D00211D20680E
:1026D00001F0F8FA012084F83D00002010BD000050
:1026E00008B501680B48B1F1804F0BD00A4A9142FE
:1026F00007D1C16941F00201C161C06900F0020067
:10270000009008BDC16941F00101C161C06900F0DC
:102710000100F5E700100240000400400168CA68AB
:1027200042F00102CA600068016841F001010160E5
:102730000020704770B5044690F83C00012817D07F
:10274000012584F83C50022084F83D00206882680E
:1027500022F0770222F47F4282600868502837D046
:102760000DDC202859D005DC88B3102841D151E078
:10277000022070BD302853D040283AD13FE0602875
:102780002ED070280BD0B0F5805F03D0B0F5005F7D
:102790002FD110E02068816821F0070115E0CB6897
:1027A000D1E90121206801F0DEFA2168886840F053
:1027B000770088601DE0CB68D1E90121206801F035
:1027C000D2FA2068816841F48041816011E01EE006
:1027D000CA684968206801F09BFB5021206806E028
:1027E000CA684968206801F0A4FB6021206801F0F4
:1027F000C4FA84F83D50002084F83C0070BDCA68DB
:102800004968206801F084FB40212068EFE700213F
:102810002068ECE710212068E9E720212068E6E73E
:1028200030212068E3E7704770B50446006801690D
:102830004FF00005C943890715D4C168C94389070A
:1028400011D4E91E0161012020772068806980078A
:10285000204602D0FFF7E7FF04E000F0BBF8204677
:1028600000F03DF9257720680169C943490717D46D
:10287000C168C943490713D46FF004010161022004
:1028800020772068806910F4407F204602D0FFF74F
:10289000CAFF04E000F09EF8204600F020F92577FA
:1028A00020680169C943090716D4C168C9430907EB
:1028B00012D46FF008010161042020772068C069FC
:1028C0008007204602D0FFF7AEFF04E000F082F858
:1028D000204600F004F9257720680169C943C9063C
:1028E00017D4C168C943C90613D46FF01001016140
:1028F000082020772068C06910F4407F204602D06D
:10290000FFF791FF04E000F065F8204600F0E7F8DB
:10291000257720680169C943C90708D1C168C9433F
:10292000C90704D1891E0161204600F0F5F820682E
:102930000169C943090609D4C168C943090605D418
:102940006FF0800101612046FFF784FE2068016975
:10295000C943490609D4C168C943490605D46FF083
:1029600040010161204600F0E1F820680169C94397
:1029700089060BD4C168C943890607D46FF02001CA
:1029800001612046BDE87040FFF765BE70BD0000E4
:1029900000B585B00021009101910291039100687A
:1029A000B0F1804F10D10948816941F00401816183
:1029B0008069694600F004000490022000900190B4
:1029C00003900348FEF7C4FE05B000BD00100240AE
:1029D00000080140704770B5044690F83C000D4671
:1029E00001280DD0012684F83C60022084F83D00C7
:1029F00042B1042A18D0082A2AD00C2A4DD139E035
:102A0000022070BD206801F0C1F92068816941F0A1
:102A1000080181612068816921F0040181612068D9
:102A200081692A69114311E0206801F0DFF920680B
:102A3000816941F4006181612068816921F48061CC
:102A40008161206881692A6941EA0221816124E06B
:102A5000206801F001FA2068C16941F00801C161F4
:102A60002068C16921F00401C1612068C1692A6937
:102A7000114311E0206801F023FA2068C16941F494
:102A80000061C1612068C16921F48061C161206871
:102A9000C1692A6941EA0221C16184F83D600020D0
:102AA00084F83C0070BD10B5040003D094F83D00DC
:102AB00010B107E0012010BD002084F83C00204642
:102AC00000F00CF8022084F83D00211D206801F080
:102AD000F9F8012084F83D00002010BD70477047D0
:102AE00010B504460068012201F032F90849206857
:102AF000884202D00749884203D1416C41F4004129
:102B000041642068016841F001010160002010BDAE
:102B1000002C01400034014000680349884201D183
:102B2000FEF71ABF70470000002C0140704710B537
:102B300004460068416994F83920C1F3C011212A84
:102B40000BD151B1416921F080014161206B08B185
:102B5000FEF7F0FA204601F05CFA2068416994F82B
:102B60003A20C1F38011222A0BD151B1416921F0E1
:102B700040014161606B08B1FEF7DCFA204601F0CC
:102B80003AFA002010BD704770B50268044610681C
:102B9000D168536910F00F0F50D003F0010501F414
:102BA000907635435DD0C20705D0CA0503D5E26BE8
:102BB00042F00102E263420705D5DA0703D0E26B77
:102BC00042F00202E263820705D5DA0703D0E26B26
:102BD00042F00402E263020705D5DA0703D0E26B94
:102BE00042F00802E263E26B002A33D0800604D58B
:102BF000880602D5204601F015FA20684069E16B8D
:102C0000C0F38010090700D428B3204601F0F3F97F
:102C10002068416949061AD5416921F040014161A6
:102C2000606BA0B11B494163606BFEF79BFA002803
:102C300010D0606B416BBDE870400847830610D52B
:102C40008B060ED52046BDE8704001F0EBB920465A
:102C5000FFF799FF70BD2046FFF795FF0020E06366
:102C600070BD030606D50B0604D52046BDE87040AE
:102C700001F0DCBA4006F3D54806F1D5D16820460C
:102C800021F04001D160202184F8391000F039F999
:102C900070BD0000573F000870B5040004D094F8E0
:102CA0003900002510B106E0012070BD84F83850CD
:102CB000204600F023F8242084F839002068C168F9
:102CC00021F40051C160204601F0F8F92068016943
:102CD00021F4904101612068416921F02A0141619C
:102CE0002068C16841F40051C160E563202084F888
:102CF000390084F83A00002070BD000070B586B03D
:102D00000025064600950195029503950068224925
:102D100088423FD12149886940F4804088618869B0
:102D200000F480400490886940F00400886188695C
:102D30001B4C00F004000490481500900220019004
:102D40000320039069462046FEF702FD2015CDE9D9
:102D50000005694620460295FEF7FAFC124C114820
:102D6000C4E900058020C4E9025020202561C4E99F
:102D700005502046E561FEF7B1FB08B1FDF7E4FD23
:102D800074630022052125206662FEF769FE252076
:102D9000FEF75AFE06B070BD003801400010024038
:102DA0000008014058000240A8030020F8B504467E
:102DB00090F83A0020283CD1C1B3BAB394F8380057
:102DC000012836D0012084F83800A162A2850025B0
:102DD000E563222084F83A00636B17489862636BBE
:102DE0001648D862636B16481863606B13464563D8
:102DF0000846666B216802463046091DFEF7ACFBAB
:102E0000206801684168009184F83850C16841F435
:102E10008071C1602068416941F001014161206811
:102E2000416941F0400141610020F8BDFFE7012008
:102E3000FBE70220F9E70000B13F0008ED3F000882
:102E4000673F0008704770472DE9F843044690F843
:102E500039001F4616460D46202850D1A5B19EB117
:102E600094F8380001284AD0012084F838004FF047
:102E70000008C4F83C80212084F83900FEF766FD84
:102E8000A6848146E68426E00120BDE8F883E08C34
:102E9000401EE084A0684B46B0F5805F4FF0000212
:102EA0004FF080012046009703D001F0F0F9E8B917
:102EB0000DE001F0ECF9C8B928882168C0F30800DA
:102EC0004860206908B16D1C05E0AD1C03E0216875
:102ED00015F8010B4860E08C0028D8D14B46002241
:102EE00040212046009701F0D2F908B10320CCE739
:102EF000202084F8390084F838800020C5E70220BB
:102F0000C3E77047FEE700001CB501F0BDFC214996
:102F1000684602F077F9204CDDE90001C4E90701B9
:102F20001E49684602F06EF9DDE90001C4E90901B5
:102F300004F124000179006801F0B2FC1748012671
:102F40001C34417A01290DD0124946720A68026088
:102F50004A68426009890181207906EB50012068A6
:102F600001F0A6FC0E4D00274FF4FA78287830B116
:102F7000207906EB5001206801F09AFC2F706878E8
:102F800018B1044801F06EFE6F70404601F022FE59
:102F9000ECE70000CD000020D8000020EC1C002051
:102FA000C80000203EB500241148009401940F4948
:102FB000029401600125C0E90245446105614FF4B6
:102FC00060214460C161FDF729FF08B1FDF7BCFC39
:102FD0000A20CDE90005694602940548FDF720FE68
:102FE000002801D0FDF7B0FC3EBD000000240140E8
:102FF000C40100200D4808B5416941F0010141615B
:103000004069002200F00100009005210B20FEF72E
:1030100027FD0B20FEF718FD002205210F20FEF7EB
:103020001FFDBDE808400F20FEF70EBD0010024056
:1030300000B585B0142207496846FDF7F1F8002174
:10304000684601F0D3FD0449086003F093F805B029
:1030500000BD00003C6200084C0000202DE9F04F4C
:1030600085B000244248009401940294039481693D
:1030700041F010018161816901F0100104918169C1
:1030800041F020018161816901F020010491816991
:1030900041F004018161816901F0040104918169B9
:1030A00041F0080181618069DFF8C88000F0080004
:1030B0000490002243F2E0314046FEF742FCDFF884
:1030C000B8A041F60107002239465046FEF739FC08
:1030D000DFF8A890002240F203414846FEF731FC99
:1030E000012211034846FEF72CFCDFF894B00022C1
:1030F00004215846FEF725FC43F2E0100125022684
:10310000CDE90005CDE9024669464046FEF720FBC1
:1031100000970396CDE9015469465046FEF718FB27
:103120001020CDE90004694640460294FEF710FBEA
:1031300041F20340CDE90005CDE902466946484623
:10314000FEF706FB6802CDE900050320CDE9025039
:1031500069464046FEF7FCFA0420CDE90005CDE9BA
:10316000024669465846FEF7F3FA05B0BDE8F08F0F
:10317000001002400010014000080140000C014016
:1031800000140140104810B50E4901604FF48271DF
:103190004160002181600122C160C0E90412520235
:1031A00082610822C0E90721416281620A21C1626D
:1031B000FFF716F8002803D0BDE81040FDF7C4BBA8
:1031C00010BD000000300140380200200F4810B54B
:1031D0000D4901604FF4827141600021816001223C
:1031E000C160C0E904125202C0E9062101624162D5
:1031F00081620A21C162FEF7F3FF002803D0BDE817
:103200001040FDF7A1BB10BD003800409002002027
:1032100010B58EB000240794089409940A940B9476
:103220001C2168460C94FDF714F81D484FF08041AE
:10323000C0E900144FF4FA61C0E9024104618461FD
:10324000FFF732FA08B1FDF77FFB4FF4805007908B
:1032500007A91348FFF76EFA08B1FDF775FB104890
:10326000FFF721FC08B1FDF76FFB0B940BA90C488D
:103270000C94FFF7F1F908B1FDF766FB6020CDE98A
:10328000000402940422694605480494FFF7A3FB56
:1032900008B1FDF759FB0248FFF77AFB0EB010BDED
:1032A000E802002010B586B000241648009401946E
:1032B00002940394049412490594C0E900144FF455
:1032C000FA61C0E9024104618461FFF7EDF908B1D8
:1032D000FDF73AFB4FF48050009069460948FFF72C
:1032E00029FA08B1FDF730FB049404A905480594B8
:1032F000FFF7B2F9002801D0FDF726FB06B010BD9C
:1033000000040040280300200C4810B50A49016061
:103310004FF4E1314160002181600C22C160C0E9BD
:1033200004128161C161FFF7B7FC002803D0BDE83A
:103330001040FDF709BB10BD0038014068030020B4
:10334000FEE770470907090E002806DA00F00F00B3
:1033500000F1E02080F8141D704700F1E02080F8B3
:103360000014704738B50B460092044600228021B5
:1033700000F008F8002804D0606D40F0200060657F
:10338000032038BD2DE9F0411D4617460E46044680
:10339000DDF8188035E0681C33D02DB1FEF7D6FA81
:1033A000A0EB0800A8422CD32068416821F0E0017E
:1033B00041606068B0F5827F0BD1A068B0F5004F26
:1033C00002D0B0F5806F04D12068016821F040017F
:1033D0000160A06AB0F5005F0AD1206801684DF66F
:1033E000FF72114001602068016841F400510160E2
:1033F000012084F85100002084F850000320BDE82B
:10340000F0812068806836EA000004D00020B842CD
:10341000C1D10020F3E70120F9E770B58EB0AA24EE
:103420008DF800408DF801400023F1248DF8024012
:103430008DF8033044788DF8044000788DF805004D
:103440004C788DF8064009788DF8071051788DF882
:103450000810062011781D466E468DF809100A24C2
:103460008DF80300F05C5B1C2844DBB2C5B2A342BC
:10347000F8D335550025641C05E07019012102F0D0
:103480006FFE6D1CEDB2A542F7D30EB070BD00000B
:1034900002F0CAFE094C002704F1200604F12208BC
:1034A000351DA07F28B1A777424631462846FFF751
:1034B000B4FF052001F08EFBF3E700007801002047
:1034C0004FF4FA74204601F085FBFBE710B550205D
:1034D00080F31188BFF34F8FBFF36F8F02F084FC2E
:1034E00018B104494FF080500860002080F3118823
:1034F00010BD000004ED00E030B595B0282168460D
:10350000FCF7A7FE14210AA8FCF7A3FE18210FA8B8
:10351000FCF79FFE022401200490009410200590E7
:1035200000254FF46010CDE9085007946846FEF777
:10353000D5FC0AA90F2081E831006002CDE90D0514
:1035400002210AA8FEF79EFB4FF4404011900F9411
:103550000FA8FEF721FB15B030BD00000D48016833
:1035600041F00101016041680B4A1140416001686E
:103570000A4A11400160016821F48021016041681C
:1035800021F4FE0141604FF41F0181600449C00332
:1035900008607047001002400000FFF8FFFFF6FED1
:1035A00008ED00E02DE9F04115460E4607460024DF
:1035B00004E0315D384600F005F8641CAC42F8D3F5
:1035C000BDE8F0812DE9F0410446808900250E46D2
:1035D0000A2805D3A07A18B1A57268A000F096FE5B
:1035E000A581A17A01274FF6FF70072928D2DFE8CD
:1035F00001F0042955113F7FA400012E20D1A4F829
:103600001404012100F05AF9A4F8140484F81954A0
:1036100003202BE0B4F81404314600F04FF9A4F86D
:103620001404A07B46EA0020A073B4F81204401CE6
:1036300080B2A4F81204012802D1A772A4F812548F
:10364000BDE8F081B4F81404314600F037F9A4F86D
:103650001404207C46EA00202082B4F81204401CA6
:1036600080B2A4F812040228EAD10420A072E5E78F
:10367000B4F81404314604F2124400F01FF96080DB
:10368000A07946EA0020A0712088401C80B22080EA
:10369000A4F212440128D3D1022047E094F8161472
:1036A00046EA01218AB2A4F81624B4F81214491C7F
:1036B00089B2A4F812140229C2D1B4F81414A4F8DF
:1036C0001414914201D033A055E0218AA1B3052200
:1036D000A272A4F81254A4F81404B1F5806FAFD903
:1036E00034A000F013FE84F81974A9E7A572A7E7C7
:1036F00094F8190428B1B4F81204401CA4F8120478
:103700000EE0B4F81404314600F0D8F8A4F814041C
:10371000B4F8120404F11202411CA4F812148654E5
:10372000B4F81204218A88428AD10620A072A4F833
:103730001254A4F8165483E718E094F8160446EAE5
:10374000002081B2A4F81614B4F81204401C80B210
:10375000A4F812040228C8D1B4F81404A4F814047C
:1037600094F81924002AC1D1884203D1204600F0E0
:1037700003F9BBE717A000F0C9FDB7E75B54465D4E
:10378000205061727365722074696D656F75740A7B
:10379000000000005B54465D20527820686561643B
:1037A00020636B73756D206D69736D617463680A56
:1037B000000000005B54465D205278207061796CF7
:1037C0006F616420746F6F206C6F6E673A202564A0
:1037D0000A0000005B54465D20426F647920636BF1
:1037E00073756D206D69736D617463680A00000004
:1037F00010B5002200EB8203D3F8404903F51463AF
:1038000044B1521CD2B2052AF4D307A000F07EFDC9
:10381000002010BD196090F85619914202D8521C30
:1038200080F85629012010BD5B54465D2046616931
:103830006C656420746F206164642067656E6572D6
:103840006963206C697374656E65720A000000001C
:1038500070B5002404EB840500EB8505D5F82C68D1
:1038600005F6280546B1641CE4B20A2CF2D30BA07D
:1038700000F04CFD002070BD6A600A782A70CA68AA
:10388000EA60096929612B816B8190F85419A14282
:1038900002D8641C80F85449012070BD5B54465D19
:1038A000204661696C656420746F206164642049FE
:1038B00044206C697374656E65720A004140034A66
:1038C000C9B232F8111081EA10207047686200080E
:1038D0002DE9F04190460E4698F8011000274FF66A
:1038E000FF7211B198F8005008E0417A01F07F05AD
:1038F000491C4172007A08B145F08005012088F822
:1039000000503070044601461046FFF7D7FFFA001A
:1039100025FA02F13155641CFFF7D0FF7F1E7FB2FC
:10392000002FF4DA5FF00105B8F80810EA00D14082
:10393000C9B23155641CFFF7C1FF6D1E6DB2002D79
:10394000F2DA002598F80210EA00D1403155641CE3
:10395000FFF7B4FF6D1E6DB2002DF3DA0121CA002E
:1039600020FA02F23255491E641C49B20029F6DAE7
:103970002046BDE8F0810000F0B585B005466846F8
:103980001421FCF766FCA87B00278DF800008DF859
:10399000017095F818048DF8020005F112000190ED
:1039A000288AADF808003E462DE000BF06EB8600F1
:1039B00005EB8004D4F82C0804F6280408B320781A
:1039C0009DF8001088421CD1E068039020690490A3
:1039D00062686946284690470399E160049921612D
:1039E00078B102280AD0032806D1E7602246314682
:1039F0002846276100F0F8FE05B0F0BD60892081FF
:103A0000FAE7761CF6B295F85409B042CED803977F
:103A1000002404971AE000BF05EBC406D6F8F4288A
:103A200006F50F6682B130789DF8021088420BD1FE
:103A300069462846904738B10328DDD132462146F1
:103A4000284600F0F0FED7E7641CE4B295F855096B
:103A5000A042E1D8002414E005EB8406D6F8402902
:103A600006F514665AB169462846904738B10328CE
:103A7000C2D132462146284600F0ACFEBCE7641CA9
:103A8000E4B295F85609A042E6D89DF8021002A0CB
:103A900000F03CFCB0E700005B54465D20556E68CA
:103AA000616E646C6564206D6573736167652C205D
:103AB000747970652025640A000000002DE9F0414A
:103AC0000F4604000BD0D4E9005640F65811FCF71D
:103AD000C0FBC4E9005627720120BDE8F08102A0B6
:103AE00000F014FC0020F8E75B54465D2054465F6C
:103AF000496E697453746174696328292066616929
:103B00006C65642C207466206973206E756C6C2E55
:103B10000A00000001224A7000231A46AFF3008019
:103B20002DE9F041044690F826080D4616461F463A
:103B300018B117A000F0EAFB27E0012084F826085E
:103B40002A4604F21A412046FFF7C2FEC4F81C08B8
:103B500029892046C4F820182EB13B463246294612
:103B6000FFF776FE88B14FF6FF71A4F824182A8972
:103B70000AB1686830B12046696800F019F820463B
:103B800000F05EF80120BDE8F0810020FBE70000B6
:103B90005B54465D20544620616C726561647920F7
:103BA0006C6F636B656420666F72207478210A0005
:103BB0002DE9F74F84B0044600F21A404FF0000B95
:103BC0001546009037E000BFD4F81C18C1F580609E
:103BD000A84200D32846824600980026084405994A
:103BE000029001EB0B001FFA8AF904F6240837460D
:103BF00001900CE00198815D0298C155B8F8000071
:103C00007F1CFFF75BFE761CA8F80000B6B24E459D
:103C1000F0D3D4F81C08A5EB0A053A18D344C4F82D
:103C20001C28B2F5806F06D12046009900F040F8BC
:103C30000020C4F81C08002DC6D107B0BDE8F08FE5
:103C40002DE9F0410446D0F82008002604F21A4578
:103C500020B3D4F81C28C2F58060022805D229467A
:103C6000204600F025F8C4F81C68D4F81C0804F6B7
:103C700024024719108800211080012013884FEA80
:103C8000C00C23FA0CF37B54401E491C40B20028A0
:103C9000F4DAD4F81C080844C4F81C082946204665
:103CA000D4F81C2800F004F884F82668BDE8F081F8
:103CB0000846114602F054BA0148FEF7B5BD0000AF
:103CC000EC030020F0B502681C4B1D4D1D4E1E4F2D
:103CD0001E4C4FF0804C984209D0A04207D060455E
:103CE00005D0A84203D0B04201D0B84204D122F09E
:103CF000700E4A6842EA0E02984209D0A04207D0EC
:103D0000604505D0A84203D0B04201D0B84203D1EB
:103D100022F44075CA682A4322F080054A692A4382
:103D200002608A68C2620A688262984201D0A04238
:103D300001D10969016301214161F0BD002C0140FD
:103D40000004004000080040000C00400034014026
:103D500010B50123046A8B409C430462036A8A40C5
:103D60001343036210BD10B5846842EA032224F4B1
:103D70007F440A432243826010BD826822F07002B1
:103D80000A4342F00701816070470000F0B5026A03
:103D900022F001020262036A42688469124E24F032
:103DA00073050C682C4323F002058B682B430D4DE3
:103DB000A84201D0B04205D123F00807CB683B43AD
:103DC00023F00403A84201D0B04205D14D6922F48A
:103DD000407215438A692A4342608461496841639D
:103DE0000362F0BD002C014000340140F0B5026ACE
:103DF00022F010020262026A436884690D6824F4AA
:103E0000E64444EA05248D6822F0200242EA0512C5
:103E10000F4D104EA84201D0B04206D1CF6822F01B
:103E2000800242EA071222F04002A84201D0B042CA
:103E300007D14D6923F4406343EA85038D6943EA62
:103E4000850343608461496881630262F0BD0000BC
:103E5000002C014000340140F0B5026A22F4807267
:103E60000262026A4368C46922F4007224F0730596
:103E70000C68124E2C438D6842EA05220E4DA84272
:103E800001D0B04206D1CF6822F4006242EA072294
:103E900022F48062A84201D0B04207D14D6923F4D8
:103EA000405343EA05138D6943EA05134360C46137
:103EB0004968C1630262F0BD002C0140003401403A
:103EC00030B5026A22F480520262046A4268C36911
:103ED0000D6823F4E64343EA05238D6824F4005477
:103EE00044EA0534084DA84202D0084DA84204D146
:103EF0004D6922F4804242EA85124260C3614968FA
:103F00000164046230BD0000002C01400034014017
:103F100010B5036A046A24F001040462846924F081
:103F2000F00444EA021423F00A020A4384610262A4
:103F300010BD10B5036A23F0100303628369046A9D
:103F400023F4704343EA023224F0A00343EA011150
:103F50008261016210BD10B5406A0021C185C18433
:103F6000FEF711FE10BD70B5446A2068406994F8F0
:103F70003910C0F3C0100025212904D118B1E584FF
:103F8000204600F046F82068406994F83A10C0F3E3
:103F90008010222904D118B1E585204600F02BF8C5
:103FA000E06B40F01000E0632046FEF7ECFD70BDD2
:103FB00010B50146406A09680968890613D40021D2
:103FC000C1850168CA6822F48072CA6001684A69C2
:103FD00022F001024A6101684A6922F040024A6106
:103FE000202180F83A10FEF72DFF10BD10B5406A71
:103FF000FEF729FF10BD0168CA6822F49072CA60FA
:1040000001684A6922F001024A61202180F83A10D1
:1040100070470168CA6822F0C002CA60202180F897
:104020003910704710B590F83A10222901D00220BB
:1040300010BD8168B1F5805F11D001690029016868
:104040001FD0496801F07F03816A4A1C82620B70AD
:10405000C18D491E0904090CC18518D02BE00269E5
:10406000816A002A0268526805D0D2B20A80816A49
:10407000491C8162ECE7C2F308020A80816A891C4C
:10408000F7E74A68816A4B1C83620A70E0E70168BF
:10409000CA6822F02002CA600168CA6822F48072ED
:1040A000CA6001684A6922F001024A61202180F851
:1040B0003A10FEF7C7FE002010BD00002DE9F041C8
:1040C000044600680169E26821F44051114301612E
:1040D0002169A0680843616908432168CA6841F200
:1040E0000C639A430243CA6020684169A26921F4C3
:1040F0004071114341614C49206864253226884251
:104100003CD1FDF7A5FE00EBC00101EB001061689A
:104110008900B0FBF1F7FDF79BFE00EBC00101EB5E
:1041200000106168B0468900B0FBF1F0B0FBF5F01B
:104130006FF01801484307EB800106EB0110B0FB5C
:10414000F5F000F0F006FDF783FE00EBC00101EB97
:10415000001061688900B0FBF1F0B0FBF5F006EBF0
:104160000016FDF775FE00EBC00101EB0010616861
:104170008900B0FBF1F7FDF76BFE3BE0FDF758FE61
:1041800000EBC00101EB001061688900B0FBF1F7A2
:10419000FDF74EFE00EBC00101EB00106168B04678
:1041A0008900B0FBF1F0B0FBF5F06FF01801484367
:1041B00007EB800106EB0110B0FBF5F000F0F00614
:1041C000FDF736FE00EBC00101EB001061688900CD
:1041D000B0FBF1F0B0FBF5F006EB0016FDF728FEA2
:1041E00000EBC00101EB001061688900B0FBF1F742
:1041F000FDF71EFE00EBC00101EB001061688900B5
:10420000B0FBF1F0B0FBF5F06FF01801484307EB9D
:10421000800108EB0110B0FBF5F0216800F00F0001
:1042200030448860BDE8F0810038014090F83910D2
:10423000212901D0022070478168B1F5805F016AB1
:104240000BD04A1C0262026809785160C18C491E79
:104250000904090CC1840ED017E009880268C1F373
:104260000801516001690029016A02D0491C0162FC
:10427000ECE7891CFBE70168CA6822F08002CA608B
:104280000068C16841F04001C160002070472DE91D
:10429000F041984617460E460446069D1DE0681CF0
:1042A0001BD02DB1FDF752FBA0EB0800A84214D99A
:1042B0002068C16821F4D071C1602068416921F093
:1042C00001014161202084F8390084F83A0000207F
:1042D00084F838000320BDE8F0812068006836EAE1
:1042E000000004D00020B842D9D00020F3E701201C
:1042F000F9E7000010B50348FEF746FCBDE81040A2
:1043000001F0CEB868030020FEE700000FB4054BB3
:1043100010B503A9044A029800F018F810BC5DF823
:1043200014FB0000F14800080401002002E008C866
:10433000121F08C1002AFAD170477047002001E01F
:1043400001C1121F002AFBD1704700002DE9FF4F69
:104350008DB00F460546002606E025280BD0DDE986
:104360000F1290476D1C761C28780028F5D111B0EB
:104370003046BDE8F08F0024A246A1460122EC4958
:1043800000E0044315F8013F203B02FA03F0084225
:10439000F7D128782A2810D06FF02F022878A0F1C2
:1043A0003001092914D80AEB8A0102EB410144F0DB
:1043B000020400EB010A6D1CF0E701CF5FEA000A7E
:1043C00003D544F40054CAF1000A44F002046D1C01
:1043D00028782E2817D115F8010F44F004042A2854
:1043E0000ED06FF02F022878A0F1300109290AD8E9
:1043F00009EB890102EB410100EB01096D1CF2E7B9
:1044000057F8049B6D1C28786C280FD006DC4C28CC
:1044100017D068280DD06A2814D104E0742810D071
:104420007A280FD10DE044F400140AE044F480141B
:1044300001E044F440146978814202D104F580140B
:104440006D1C6D1C2A786E2A1FD00CDC632A31D0BB
:1044500004DC002A8BD0582A11D1A3E0642A68D04A
:10446000692A0CD165E0732A2ED004DC6F2A73D040
:10447000702A04D19BE0752A6FD0782A6ED010463E
:10448000DDE90F129047761C50E1C4F30250022878
:1044900006D0032809D0042801CF09D0066045E1E1
:1044A00001CFF117C0E9006140E101CF06803DE195
:1044B00006703BE117F8040B8DF8000000208DF822
:1044C0000100EB46012003E057F804BB4FF0FF303A
:1044D00061074FF0000102D40DE008F101018846A8
:1044E00049450FDA8045F8DB1BF808100029F4D1A4
:1044F00008E008F1010188468142FADB1BF8081048
:104500000029F6D1DDE90F23AAEB080081462146F8
:1045100000F036F9304400EB080604E0DDE90F1244
:104520001BF8010B9047B8F10108F7D22146484625
:10453000F7E00A21C4F302534FF0000B0891022B5D
:1045400004D001CFC117032B09D00AE0FF1D27F0CB
:104550000707F7E8020108E032E01FE020E000B2C0
:10456000C117042B01D140B2C117031E71F1000322
:1045700007DA4FF0000CD0EB0C006CEB01012D239F
:1045800002E0230504D52B238DF82430012303E01A
:10459000E30701D02023F7E7984658E00A2110E00E
:1045A00010210EE010204FF0000B08900CE01021BD
:1045B0004FF0000B44F004044FF00809089103E0A9
:1045C00008214FF0000B0891C4F30253022B04D0D2
:1045D00001CF0021032B06D006E0FF1D27F00707BF
:1045E000F7E8020103E080B2042B00D1C0B24FF023
:1045F000000823072BD5702A07D0DDF820C08CF0E7
:10460000100C5CEA0B0C05D00EE040238DF8243032
:10461000012308E050EA010306D030238DF824304E
:104620008DF8252002239846DDF820C08CF0080C78
:104630005CEA0B0C0BD150EA010301D1630706D5EC
:1046400030238DF824304FF00108A9F10109582AD0
:1046500004D038A20B9208AA0A920BE03AA2F9E71A
:104660005B46089AFBF7C7FF0B9B9B5C0A9A521E9E
:104670000A92137050EA0102F2D10A98ADEB0000E1
:1046800000F1200B600702D524F4803401E04FF0E4
:104690000109D94502DDA9EB0B0000E0002000EB89
:1046A0000B0141440890AAEB010AE00306D4DDE9BE
:1046B0000F232146504600F063F806444FF00009EE
:1046C00008E009A911F80900DDE90F12904709F186
:1046D0000109761CC145F4DBE0030CD5DDE90F23AD
:1046E0002146504600F04CF8064404E0DDE90F1284
:1046F00030209047761C0899481E08900029F5DC68
:1047000008E00A980A990078491C0A91DDE90F121D
:104710009047761CBBF10001ABF1010BF1DC2146A7
:104720005046DDE90F2300F019F806446D1C1BE626
:104730000928010030313233343536373839616277
:10474000636465660000000030313233343536373B
:104750003839414243444546000000002DE9F0410C
:10476000044600251E461746880404D405E0394651
:104770002020B0476D1C641EF9D52846BDE8F081A5
:104780002DE9F041044600251E469046C80301D598
:10479000302700E02027880404D505E0414638464C
:1047A000B0476D1C641EF9D52846BDE8F0810000B5
:1047B000074A064B117843F82100491CC8B2107013
:1047C0000A2801D9002070470120704750010020BD
:1047D0002C0000200023136090F85629521E8A42B4
:1047E00001D180F856297047F0B50546506885B06C
:1047F00014460E46002814D0E068002708B9216945
:1048000039B103902069019704906268694628468F
:104810009047676095F85429521EB24201D185F83D
:10482000542905B0F0BD0023536090F85529521E5D
:104830008A4201D180F8552970470000024610B520
:104840000F4801210F4C0068012A04D0022A04D02D
:10485000032A03D105E0A1700DE0E170A17851B900
:1048600006E001F01DF80020A070E070207110BD7E
:10487000E1780029FBD0BDE8104000F08DBF0000BA
:10488000E8000020C800002003480021016003491F
:1048900081600221C1607047B401002000F8030864
:1048A000024B0A461946FBF7BBBC000000F80308A0
:1048B000F8B50D460646FCF737FF00200090694624
:1048C0000948FCF793FE0024084F08E036F814204E
:1048D00007EB440100230120FCF7E6FE641CAC4218
:1048E000F4DBFCF7D7FEF8BDB401002000F80308A4
:1048F00013B50448FF23012269464068FEF7A4FA75
:1049000000981CBD2C00002010B5B42000F09CF8CD
:10491000000C10BD01494988018070472C0000201F
:1049200010B51049802000F0EBF80F49812000F00D
:10493000E7F80E49822000F0E3F81221832000F00E
:10494000DFF80B49842000F0DBF81421852000F00B
:10495000D7F80520FCF738FE1521BDE81040862069
:1049600000F0CEB8122024002500410111000040C3
:10497000130000202DE9FC41054600200C468DF86F
:10498000000006464A1E019020E000BF8DF800009E
:10499000411C0AE055F821309DF8007055F8277049
:1049A000BB4201D28DF80010491CA142F2DB55F840
:1049B000201001919DF8001055F8211045F82010A5
:1049C0009DF800300199401C45F823109042DDDB32
:1049D000002708E055F82700FBF7ACFD3146FBF750
:1049E00043FC06467F1CA742F4DB2046FBF7A2FDF2
:1049F00001463046FBF7C2FC0446FBF7CDFD6FF0E5
:104A00000F02FBF777FD0022084BFBF701FD084A78
:104A1000084BFBF7FDFCFBF7D2FD074AC2E9024059
:104A2000FBF7A6FD05490884BDE8FC8100407F40F6
:104A3000D0BE4DDAAFFA3D403C00002078010020A6
:104A4000B02000F001B800003EB5154D8DF804000F
:104A50008DF805008DF806008DF807008DF8080028
:104A60004FF48054002221462846FCF76AFF4FF697
:104A7000FF700C4A0090A2F10C00052301A9806888
:104A8000FDF7FCFC012221462846FCF75AFF0549A8
:104A9000D1F80100097900BA20F0FF0008433EBDBB
:104AA000000C01400C00002005484FF400724168E2
:104AB0000A610520401EFDD24FF00070086170476A
:104AC00000000020F8B50C4E8DF800004FF4805522
:104AD000002229463046FCF734FF084CFF23012210
:104AE0006946A068FDF716FC207001222946304671
:104AF000FCF727FFF8BD0000000C0140000000207B
:104B00007CB5154E8DF8040000200090080E8DF83D
:104B10000000080C8DF80100080A8DF802008DF8DD
:104B200003104FF48055002229463046FCF709FF58
:104B30000A4CFF23012201A9A068FDF7EBFB2070BE
:104B4000FF2304226946A068FDF7E4FB0122294601
:104B50003046FCF7F6FE7CBD000C01400000002052
:104B6000FCF702FFFEF7C8FCFEF778FAFEF742FA00
:104B7000FEF72CFBFEF74CFBFEF794FBFEF712FA58
:104B8000FEF7C2FBFEF7FEFAFEF752FA00F029F834
:104B9000FEE701460020842900D0C81C70470000B1
:104BA0000B4810B541608878012804D002280AD04B
:104BB00003280BD103E00878FFF740FE06E00878F1
:104BC00000F048F802E0087800F028F8012010BD55
:104BD000C000002010B500B9012000F057FD0020F2
:104BE00010BD10B500F028FE002010BD3EB50446F3
:104BF0000D46B0F90800FFF7CCFF02A9CDE900018E
:104C0000208A2B4682B2D4E9001001F0B3F80128C3
:104C100001D000203EBD02983EBD00000C4A012894
:104C200004D0022807D003280CD108E048680068A7
:104C3000C2F8010006E048680078D07102E04868D8
:104C40000078107202490120491F08707047000067
:104C5000CD000020012801D10149487070470000B3
:104C6000C800002010B588B0044668461421FBF740
:104C7000F0FA214605A800F0C5FADDE9050101902A
:104C8000C8B20322ADF808008DF8022004480122C2
:104C90008DF8002069460068FEF73CFF08B010BDA3
:104CA000C00000202DE9F041184C0F460546E6688B
:104CB0002068001D00F00AFC38B9206890F82C101C
:104CC00001208840216981432161681C07D137B1E7
:104CD0002168BDE8F0410E48091D00F02FBC206896
:104CE0003544B5424560216805D2A06BBDE8F0416E
:104CF000091D00F00BBC606B091D00F007FCA06AE9
:104D0000854200D2A562BDE8F0810000600000206D
:104D1000680500202DE9F041054600F01BFC2D4CF4
:104D2000A068401CA06020682B4F10B1606938B3A8
:104D30002CE02560A068012828D1002606EB86001B
:104D400007EB800000F0D4FB761C0A2EF6D3224835
:104D5000C83000F0CDFB2048DC3000F0C9FB1E4815
:104D6000F03000F0C5FB1D4800F0C2FB1B481430BA
:104D700000F0BEFB19483C3860631430A06305E0C6
:104D80002068E96AC06A884200D82560606A401CD1
:104D90006062E96A0120226988401043206101EBCA
:104DA000810007EB8000291D00F0C8FB00F0F2FB3A
:104DB000606900280CD02068E96AC06A884207D27E
:104DC00007494FF080500860BFF34F8FBFF36F8FDC
:104DD000BDE8F08160000020500400205405002050
:104DE00004ED00E070B5114E114C17E000F0B0FD7D
:104DF0003068B8B101F096F800F0ACFBF068C56817
:104E0000281D00F063FBA068401EA0606068401E83
:104E1000606000F0BFFB284600F01FF860680028C3
:104E2000E4D170BD01F07EF8F8E7000054050020E1
:104E30006000002030B4026C0B46002A0BD0C16821
:104E40001144C1604468A14201D30168C16030BC13
:104E50001846FBF7E5B930BC704710B50446006B47
:104E600000F0ACFB2046BDE8104000F0A7BB0000FE
:104E70000F4841F27071420705D0C01D0C4A20F066
:104E80000700821A891A0B4A00230144C2E9000371
:104E90000839103A21F0070111604B600B600B1AC2
:104EA000C0E9001393604FF000405360D06070473A
:104EB0007C050020AC000020074C4FF08056074DC9
:104EC000FFF790FF20680128FAD92E60BFF34F8FBB
:104ED000BFF36F8FF4E700005004002004ED00E002
:104EE0002DE9F0479A46DDE9098481466FF0030316
:104EF000206B03EB82021044089D20F00706700728
:104F000007D0502080F31188BFF34F8FBFF36F8F0E
:104F1000FEE723180A5C83F834200A5C12B1401CB7
:104F20001028F6D3002784F843700A2D00D30925F2
:104F3000E562C4E91157201D00F0E5FA04F11800FC
:104F400000F0E1FA2461C5F10A006462A061E7643F
:104F500084F8507052464946304600F029F92060E6
:104F6000B8F1000F01D0C8F80040BDE8F08700009C
:104F700030B5114900E011460A688242FBD34B6804
:104F80005C18844203D1406818444860084643686E
:104F90001C18944209D1084C103C2468A24209D044
:104FA00052681A4442600A6812680260814200D066
:104FB000086030BD0460F9E7AC00002010B504467D
:104FC00000F0C8FAA06B28B15FF0000400F0E2FA2C
:104FD000204610BD0124F9E70648416B096829B154
:104FE000416BC968C9684968816270474FF0FF31F9
:104FF000FAE700006000002008484068401C4FF0BD
:10500000500080F3118804D0BFF34F8FBFF36F8F30
:10501000FEE7BFF34F8FBFF36F8FFEE7B4000020B2
:10502000002150B10A4B42699A420FD1806AA3F124
:10503000280290420AD040B108E0502080F3118845
:10504000BFF34F8FBFF36F8FFEE701210846704714
:10505000680500202DE9F041044600F07BFA94F940
:10506000455004F1240609E0606A48B1304600F07A
:105070001FFF08B100F030FB6D1E6DB2002DF3DC98
:105080004FF0FF3684F8456000F084FA00F062FAD1
:1050900094F9445004F1100709E0206948B13846FA
:1050A00000F006FF08B100F017FB6D1E6DB2002D79
:1050B000F3DC84F84460BDE8F04100F06BBA000016
:1050C0002DE9F0410546002700F042FC314E3068E2
:1050D00008B9FFF7CDFEF06805424BD1C5B30835DE
:1050E00068070ED005F00700C0F108000544680706
:1050F00007D0502080F31188BFF34F8FBFF36F8F1D
:10510000FEE72DB37068854234D82248103001463E
:105110000C6801E020460C466168A94202D2216871
:105120000029F7D131688C4224D0076821680160DA
:1051300060680837411B10290FD96019420708D051
:10514000502080F31188BFF34F8FBFF36F8FFEE7BE
:1051500010E041606560FFF70BFF61687068401AFE
:105160007060B268904200D2B060F06801430020E5
:10517000C4E9000100F0D6FE780707D0502080F384
:105180001188BFF34F8FBFF36F8FFEE73846BDE83E
:10519000F08100009C0000200449086818B10868EC
:1051A000826C521C82640868704700006000002016
:1051B00010B5031F4FF080741C601B1F21F001010C
:1051C0001960191F024B0B60143940380A6010BD7A
:1051D000F94F000802494968096888637047000070
:1051E0003C000020024804214068FDF779BC000023
:1051F0003C000020024804210068FDF771BC00005B
:105200003C0000200A2363F30702C0E90012704744
:1052100070B5204800F016FF1E4C243C84F8260090
:1052200010B9A08B401CA083208FA18C401A00B223
:105230000A21642802DA10F1640F03DA90FBF1F01E
:1052400000B201E00021E162FBF76BF90546216B3A
:10525000FBF762F8616BFBF707F8606306462846C8
:10526000E16AFBF759F83146FAF7FEFFFBF767F9F9
:1052700000F5967004B2C82C01DAC82404E04FF49B
:105280009660844200DD0446A0B200F09FF8A0B210
:1052900070BD00009C01002010B54FF496718C0089
:1052A000204600F07FF8204600F08CF8FFF7A2FFC0
:1052B000FFF798FF002000F0E3F86420FFF78AFF73
:1052C000FBF7CEFB5020FFF7FDFBFFF729FB04495E
:1052D0000248C862034808630C8710BDCDCCCC3DA2
:1052E000780100200AD7233C401EFDD27047000001
:1052F00070B50122084D140321462846FCF721FB16
:105300004FF4FA70FFF7F0FF21462846BDE87040E1
:105310000022FCF716BB00000010014010B58EB053
:1053200004460020ADF8340034216846FAF791FFB6
:105330000DA8FFF7EFFA0022684602E0A15C815455
:10534000521CBDF834108A42F8DB04488AB2214668
:105350000068FEF727F90EB010BD0000C000002065
:10536000F8B5044600200D4E02464FF4006500904B
:1053700029463046FCF7E5FA200A8DF80000084877
:105380008DF80140FF23022269460068FCF7C2FF46
:10539000012229463046FCF7D4FAF8BD0008014046
:1053A0003800002070B5054641F480542046FFF7D0
:1053B000D7FF2046FFF7D4FF45F40040BDE870401A
:1053C000FFF7CEBF40F40040FFF7CABF10B5044658
:1053D000FFF7C6FF2046BDE81040FFF7C1BF000041
:1053E000074910B500204860FFF782FF05210548F6
:1053F000FFF7C0FA034901200839887710BD000083
:10540000D80000208001002010B5FFF77DFA114C74
:1054100010F0380F15D0002220210F48FCF791FA28
:10542000FFF70EFB0D4A616802EB8102491C906098
:105430006160052901D0012010BD002060600220BC
:1054400010BDC00504D5A068401CA060032010BD9D
:10545000002010BDD800002000100140780100207D
:1054600010B50120FFF72EFB012220210348FCF795
:1054700068FABDE81040FFF717BB000000100140BC
:10548000064B30B1012807D1012280211846FCF7D4
:1054900058BA01221102F9E77047000000100140DC
:1054A0001CB5094A01200090506800680168C1F3EA
:1054B0000011002906D00168406801906946906893
:1054C00000F0D4FB1CBD00002C000020D0E901320C
:1054D00001699A60D0E901235A604A68824201D189
:1054E00082684A60002202610868401E08607047B6
:1054F00000F108014FF0FF32C0E90112C160016103
:1055000000210160704700210161704730B50B68D0
:105510005A1C02D000F1080202E0026904E02246AF
:10552000546825689D42FAD953684B6099608A6037
:10553000516008610168491C016030BD42684A60E1
:1055400093688B6093685960916008610168491C99
:1055500001607047502080F31188BFF34F8FBFF375
:105560006F8F0A494868401C486001280CD10848E0
:10557000006810F0FF0F07D0502080F31188BFF3B0
:105580004F8FBFF36F8FFEE770470000B40000201D
:1055900004ED00E00849486828B1401E486001D188
:1055A00080F311887047502080F31188BFF34F8F2C
:1055B000BFF36F8FFEE70000B400002070B5002835
:1055C00027D0144DA0F108046168E868014207D1B2
:1055D000502080F31188BFF34F8FBFF36F8FFEE72A
:1055E00022683AB1502080F31188BFF34F8FBFF388
:1055F0006F8FFEE78143616000F0AAF96068696817
:10560000084468602046FFF7B3FCBDE8704000F036
:1056100089BC70BD9C00002006484FF47A71006878
:10562000B0FBF1F14FF0E020491E4161072101611B
:10563000704700005C00002010B5FAF7CBFD11495F
:1056400010280ED300F1E02090F8F0030A78904281
:1056500007D2502080F31188BFF34F8FBFF36F8FB5
:10566000FEE709480068896800F4E060884207D9CD
:10567000502080F31188BFF34F8FBFF36F8FFEE789
:1056800010BD0000B40000200CED00E010B50200D9
:1056900014D00F48006B38B1502080F31188BFF34D
:1056A0004F8FBFF36F8FFEE700F052F900211046D5
:1056B000FFF7F8FA00F036FC002807D105494FF053
:1056C00080500860BFF34F8FBFF36F8F10BD000095
:1056D0006000002004ED00E001490120C86170472E
:1056E0006000002010B50C4650B109490968183116
:1056F000FFF70CFF2046BDE810400121FFF7D2BAAA
:10570000502080F31188BFF34F8FBFF36F8FFEE7F8
:105710006000002070B5040039D01D4DE06A296892
:10572000C96A884233D2A069002804DB2868C06AAD
:10573000C0F10A00A061E16A164E01EB81016069C7
:1057400006EB810188421FD1201DFFF7BFFE01211A
:1057500050B9E06A00EB800256F8222022B92A698B
:1057600001FA00F082432A612868C06AE0622A696F
:1057700081401143296100EB800006EB8000211D70
:10578000BDE87040FFF7DABE2868C06AE06270BD0D
:10579000600000205004002070B504002BD01A4D8A
:1057A000286884422FD0FFF7D5FE2046FFF738FC4B
:1057B000E8B1201DFFF78AFEE06A01212A698140D5
:1057C00011432961114900EB800001EB8000211D8C
:1057D000FFF7B4FEE06A2968C96A884207D30C491A
:1057E0004FF080500860BFF34F8FBFF36F8FBDE85D
:1057F0007040FFF7CFBE502080F31188BFF34F8F6A
:10580000BFF36F8FFEE770BD6000002050040020E2
:1058100004ED00E028B107490A6A0260C9684160E6
:105820007047502080F31188BFF34F8FBFF36F8F05
:10583000FEE70000600000201CB515480024CDE9FB
:1058400000402346802213A1144800F093FA012857
:1058500009D0401C1AD1502080F31188BFF34F8F1C
:10586000BFF36F8FFEE7502080F31188BFF34F8F97
:10587000BFF36F8F06484FF0FF312C388162012152
:105880004161C460BDE81C4000F098B81CBD000038
:105890008C00002049444C4500000000B94E00082F
:1058A00070B50446FFF756FE254D04B92C68201D3F
:1058B000FFF70CFE58B9E06A224A00EB800152F86B
:1058C000211021B901218140286988432861A06AFB
:1058D00018B104F11800FFF7F9FD211D1A48FFF770
:1058E0002DFEFFF757FE686928B1FFF733FEFFF77B
:1058F00073FBFFF74FFE2868844213D1686990B1AB
:10590000286B38B1502080F31188BFF34F8FBFF35D
:105910006F8FFEE70D494FF080500860BFF34F8F47
:10592000BFF36F8F70BD0848A9680068884202D134
:105930000020286070BDBDE8704000F011B8000084
:1059400060000020500400206805002004ED00E005
:105950000248016B491C0163704700006000002091
:105960001448016B11B10121C16170470021C1616F
:105970000169B1FA81F1C1F11F0101EB81020E4908
:1059800051F822306BB101EB820101F108034A6842
:1059900052684A609A4201D152684A60D1680160F7
:1059A0007047502080F31188BFF34F8FBFF36F8F84
:1059B000FEE7000060000020500400201CB51949DB
:1059C00008780190FF20087008788DF800009DF895
:1059D0000000154A00F0500010700720906005E0AC
:1059E0009DF800305B008DF80030401E9DF80030BF
:1059F0001B06F5D4000200F4E06090600198087086
:105A00000A48016841F470010160016841F0704189
:105A10000160FFF701FE00205060FAF7A5FB0020AF
:105A20001CBD000000E400E0B400002020ED00E018
:105A300070B50E46050013D0D6B105FB06F0483010
:105A4000FFF73EFB040009D004F1480120468EB167
:105A50000160C0E90F56012100F0C4F8204670BD76
:105A6000502080F31188BFF34F8FBFF36F8FFEE795
:105A70000020E4E70060ECE72DE9FF4F002683B04B
:105A80009B468A46040003D0BAF1000F08D011E00B
:105A9000502080F31188BFF34F8FBFF36F8FFEE765
:105AA000206C38B1502080F31188BFF34F8FBFF3C3
:105AB0006F8FFEE700F08AF9DFF824814FF00009CC
:105AC0004FF0805748B9059838B1502080F31188BD
:105AD000BFF34F8FBFF36F8FFEE7FFF73BFDA56B63
